{
    "contractName": "Raffle",
    "abi": [
        {
            "constant": true,
            "inputs": [],
            "name": "manager",
            "outputs": [
                {
                    "name": "",
                    "type": "address"
                }
            ],
            "payable": false,
            "stateMutability": "view",
            "type": "function"
        },
        {
            "constant": true,
            "inputs": [
                {
                    "name": "",
                    "type": "address"
                },
                {
                    "name": "",
                    "type": "uint256"
                }
            ],
            "name": "raffles",
            "outputs": [
                {
                    "name": "maxTickets",
                    "type": "uint256"
                },
                {
                    "name": "price",
                    "type": "uint256"
                },
                {
                    "name": "owner",
                    "type": "address"
                }
            ],
            "payable": false,
            "stateMutability": "view",
            "type": "function"
        },
        {
            "inputs": [],
            "payable": true,
            "stateMutability": "payable",
            "type": "constructor"
        },
        {
            "payable": true,
            "stateMutability": "payable",
            "type": "fallback"
        },
        {
            "anonymous": false,
            "inputs": [
                {
                    "indexed": false,
                    "name": "_minter",
                    "type": "address"
                },
                {
                    "indexed": false,
                    "name": "_tokenId",
                    "type": "uint256"
                },
                {
                    "indexed": false,
                    "name": "_owner",
                    "type": "address"
                },
                {
                    "indexed": false,
                    "name": "_maxTickets",
                    "type": "uint256"
                },
                {
                    "indexed": false,
                    "name": "_price",
                    "type": "uint256"
                }
            ],
            "name": "CreateEvent",
            "type": "event"
        },
        {
            "anonymous": false,
            "inputs": [
                {
                    "indexed": false,
                    "name": "_minter",
                    "type": "address"
                },
                {
                    "indexed": false,
                    "name": "_tokenId",
                    "type": "uint256"
                },
                {
                    "indexed": false,
                    "name": "_participant",
                    "type": "address"
                },
                {
                    "indexed": false,
                    "name": "_qty",
                    "type": "uint256"
                }
            ],
            "name": "JoinEvent",
            "type": "event"
        },
        {
            "anonymous": false,
            "inputs": [
                {
                    "indexed": false,
                    "name": "_minter",
                    "type": "address"
                },
                {
                    "indexed": false,
                    "name": "_tokenId",
                    "type": "uint256"
                },
                {
                    "indexed": false,
                    "name": "_winner",
                    "type": "address"
                },
                {
                    "indexed": false,
                    "name": "_nftValue",
                    "type": "uint256"
                }
            ],
            "name": "DrawEvent",
            "type": "event"
        },
        {
            "anonymous": false,
            "inputs": [
                {
                    "indexed": false,
                    "name": "_minter",
                    "type": "address"
                },
                {
                    "indexed": false,
                    "name": "_tokenId",
                    "type": "uint256"
                },
                {
                    "indexed": false,
                    "name": "_owner",
                    "type": "address"
                }
            ],
            "name": "AbortEvent",
            "type": "event"
        },
        {
            "anonymous": false,
            "inputs": [
                {
                    "indexed": false,
                    "name": "_from",
                    "type": "address"
                },
                {
                    "indexed": false,
                    "name": "_value",
                    "type": "uint256"
                }
            ],
            "name": "Paid",
            "type": "event"
        },
        {
            "constant": false,
            "inputs": [
                {
                    "name": "_maxTickets",
                    "type": "uint256"
                },
                {
                    "name": "_price",
                    "type": "uint256"
                },
                {
                    "name": "_owner",
                    "type": "address"
                },
                {
                    "name": "_minter",
                    "type": "address"
                },
                {
                    "name": "_tokenId",
                    "type": "uint256"
                }
            ],
            "name": "createRaffle",
            "outputs": [],
            "payable": true,
            "stateMutability": "payable",
            "type": "function"
        },
        {
            "constant": false,
            "inputs": [
                {
                    "name": "_minter",
                    "type": "address"
                },
                {
                    "name": "_tokenId",
                    "type": "uint256"
                },
                {
                    "name": "_qty",
                    "type": "uint256"
                }
            ],
            "name": "joinRaffle",
            "outputs": [
                {
                    "name": "",
                    "type": "bool"
                }
            ],
            "payable": true,
            "stateMutability": "payable",
            "type": "function"
        },
        {
            "constant": false,
            "inputs": [
                {
                    "name": "_minter",
                    "type": "address"
                },
                {
                    "name": "_tokenId",
                    "type": "uint256"
                }
            ],
            "name": "draw",
            "outputs": [
                {
                    "name": "",
                    "type": "address"
                }
            ],
            "payable": false,
            "stateMutability": "nonpayable",
            "type": "function"
        },
        {
            "constant": true,
            "inputs": [
                {
                    "name": "_minter",
                    "type": "address"
                },
                {
                    "name": "_tokenId",
                    "type": "uint256"
                }
            ],
            "name": "getParticipants",
            "outputs": [
                {
                    "name": "",
                    "type": "address[]"
                }
            ],
            "payable": false,
            "stateMutability": "view",
            "type": "function"
        }
    ],
    "bytecode": "0x6080604052336000806101000a81548173ffffffffffffffffffffffffffffffffffffffff021916908373ffffffffffffffffffffffffffffffffffffffff1602179055506112f7806100536000396000f300608060405260043610610078576000357c0100000000000000000000000000000000000000000000000000000000900463ffffffff1680631c03e4eb146100e5578063481c6a75146101595780634a03707c146101b05780637c3f22051461023d578063e30ee25e146102df578063e3469eef1461037a575b7f737c69225d647e5994eab1a6c301bf6d9232beb2759ae1e27a8966b4732bc4893334604051808373ffffffffffffffffffffffffffffffffffffffff1673ffffffffffffffffffffffffffffffffffffffff1681526020018281526020019250505060405180910390a1005b6101576004803603810190808035906020019092919080359060200190929190803573ffffffffffffffffffffffffffffffffffffffff169060200190929190803573ffffffffffffffffffffffffffffffffffffffff169060200190929190803590602001909291905050506103dc565b005b34801561016557600080fd5b5061016e6105d4565b604051808273ffffffffffffffffffffffffffffffffffffffff1673ffffffffffffffffffffffffffffffffffffffff16815260200191505060405180910390f35b3480156101bc57600080fd5b506101fb600480360381019080803573ffffffffffffffffffffffffffffffffffffffff169060200190929190803590602001909291905050506105f9565b604051808273ffffffffffffffffffffffffffffffffffffffff1673ffffffffffffffffffffffffffffffffffffffff16815260200191505060405180910390f35b34801561024957600080fd5b50610288600480360381019080803573ffffffffffffffffffffffffffffffffffffffff16906020019092919080359060200190929190505050610d8a565b6040518080602001828103825283818151815260200191508051906020019060200280838360005b838110156102cb5780820151818401526020810190506102b0565b505050509050019250505060405180910390f35b3480156102eb57600080fd5b5061032a600480360381019080803573ffffffffffffffffffffffffffffffffffffffff16906020019092919080359060200190929190505050610e6c565b604051808481526020018381526020018273ffffffffffffffffffffffffffffffffffffffff1673ffffffffffffffffffffffffffffffffffffffff168152602001935050505060405180910390f35b6103c2600480360381019080803573ffffffffffffffffffffffffffffffffffffffff1690602001909291908035906020019092919080359060200190929190505050610ec3565b604051808215151515815260200191505060405180910390f35b84600160008473ffffffffffffffffffffffffffffffffffffffff1673ffffffffffffffffffffffffffffffffffffffff16815260200190815260200160002060008381526020019081526020016000206000018190555083600160008473ffffffffffffffffffffffffffffffffffffffff1673ffffffffffffffffffffffffffffffffffffffff16815260200190815260200160002060008381526020019081526020016000206001018190555082600160008473ffffffffffffffffffffffffffffffffffffffff1673ffffffffffffffffffffffffffffffffffffffff168152602001908152602001600020600083815260200190815260200160002060030160006101000a81548173ffffffffffffffffffffffffffffffffffffffff021916908373ffffffffffffffffffffffffffffffffffffffff1602179055507f55ccebce0a6df99b86c92b155269d1da46a1dcb91ae2a72e5f0d27385fe2201e8282858888604051808673ffffffffffffffffffffffffffffffffffffffff1673ffffffffffffffffffffffffffffffffffffffff1681526020018581526020018473ffffffffffffffffffffffffffffffffffffffff1673ffffffffffffffffffffffffffffffffffffffff1681526020018381526020018281526020019550505050505060405180910390a15050505050565b6000809054906101000a900473ffffffffffffffffffffffffffffffffffffffff1681565b6000806000806000806000809054906101000a900473ffffffffffffffffffffffffffffffffffffffff1673ffffffffffffffffffffffffffffffffffffffff163373ffffffffffffffffffffffffffffffffffffffff161415156106c6576040517f08c379a000000000000000000000000000000000000000000000000000000000815260040180806020018281038252601e8152602001807f6d6573736167652073656e64657220697320756e617574686f72697a6564000081525060200191505060405180910390fd5b6000600160008a73ffffffffffffffffffffffffffffffffffffffff1673ffffffffffffffffffffffffffffffffffffffff1681526020019081526020016000206000898152602001908152602001600020600201805490501115610b5c57439450600160008973ffffffffffffffffffffffffffffffffffffffff1673ffffffffffffffffffffffffffffffffffffffff16815260200190815260200160002060008881526020019081526020016000206002018054905085604051808281526020019150506040518091039020600190048115156107a257fe5b069350600160008973ffffffffffffffffffffffffffffffffffffffff1673ffffffffffffffffffffffffffffffffffffffff16815260200190815260200160002060008881526020019081526020016000206002018481548110151561080557fe5b9060005260206000200160009054906101000a900473ffffffffffffffffffffffffffffffffffffffff169250600160008973ffffffffffffffffffffffffffffffffffffffff1673ffffffffffffffffffffffffffffffffffffffff168152602001908152602001600020600088815260200190815260200160002060010154600160008a73ffffffffffffffffffffffffffffffffffffffff1673ffffffffffffffffffffffffffffffffffffffff168152602001908152602001600020600089815260200190815260200160002060020180549050029150600a828115156108ec57fe5b0490506000809054906101000a900473ffffffffffffffffffffffffffffffffffffffff1673ffffffffffffffffffffffffffffffffffffffff166108fc829081150290604051600060405180830381858888f19350505050158015610956573d6000803e3d6000fd5b50600160008973ffffffffffffffffffffffffffffffffffffffff1673ffffffffffffffffffffffffffffffffffffffff168152602001908152602001600020600088815260200190815260200160002060030160009054906101000a900473ffffffffffffffffffffffffffffffffffffffff1673ffffffffffffffffffffffffffffffffffffffff166108fc8284039081150290604051600060405180830381858888f19350505050158015610a12573d6000803e3d6000fd5b50600160008973ffffffffffffffffffffffffffffffffffffffff1673ffffffffffffffffffffffffffffffffffffffff16815260200190815260200160002060008881526020019081526020016000206000808201600090556001820160009055600282016000610a849190611285565b6003820160006101000a81549073ffffffffffffffffffffffffffffffffffffffff021916905550507f1c0668d87d49b388d1c098aae2648be3a57668231f0744618efe77be8e42d27188888585604051808573ffffffffffffffffffffffffffffffffffffffff1673ffffffffffffffffffffffffffffffffffffffff1681526020018481526020018373ffffffffffffffffffffffffffffffffffffffff1673ffffffffffffffffffffffffffffffffffffffff16815260200182815260200194505050505060405180910390a1829550610d7f565b600160008973ffffffffffffffffffffffffffffffffffffffff1673ffffffffffffffffffffffffffffffffffffffff16815260200190815260200160002060008881526020019081526020016000206000808201600090556001820160009055600282016000610bcd9190611285565b6003820160006101000a81549073ffffffffffffffffffffffffffffffffffffffff021916905550507f59af6e6b8666c755672dfe5a30d9d3559efbb80d722801a2c02b314e2177434f8888600160008c73ffffffffffffffffffffffffffffffffffffffff1673ffffffffffffffffffffffffffffffffffffffff16815260200190815260200160002060008b815260200190815260200160002060030160009054906101000a900473ffffffffffffffffffffffffffffffffffffffff16604051808473ffffffffffffffffffffffffffffffffffffffff1673ffffffffffffffffffffffffffffffffffffffff1681526020018381526020018273ffffffffffffffffffffffffffffffffffffffff1673ffffffffffffffffffffffffffffffffffffffff168152602001935050505060405180910390a1600160008973ffffffffffffffffffffffffffffffffffffffff1673ffffffffffffffffffffffffffffffffffffffff168152602001908152602001600020600088815260200190815260200160002060030160009054906101000a900473ffffffffffffffffffffffffffffffffffffffff1695505b505050505092915050565b6060600160008473ffffffffffffffffffffffffffffffffffffffff1673ffffffffffffffffffffffffffffffffffffffff1681526020019081526020016000206000838152602001908152602001600020600201805480602002602001604051908101604052809291908181526020018280548015610e5f57602002820191906000526020600020905b8160009054906101000a900473ffffffffffffffffffffffffffffffffffffffff1673ffffffffffffffffffffffffffffffffffffffff1681526020019060010190808311610e15575b5050505050905092915050565b6001602052816000526040600020602052806000526040600020600091509150508060000154908060010154908060030160009054906101000a900473ffffffffffffffffffffffffffffffffffffffff16905083565b60008082600160008773ffffffffffffffffffffffffffffffffffffffff1673ffffffffffffffffffffffffffffffffffffffff1681526020019081526020016000206000868152602001908152602001600020600101540234141515610fb8576040517f08c379a00000000000000000000000000000000000000000000000000000000081526004018080602001828103825260328152602001807f6d6573736167652076616c7565206973206e6f7420657175616c20746f20746981526020017f636b6574732720746f74616c207072696365000000000000000000000000000081525060400191505060405180910390fd5b82600160008773ffffffffffffffffffffffffffffffffffffffff1673ffffffffffffffffffffffffffffffffffffffff16815260200190815260200160002060008681526020019081526020016000206000015403600160008773ffffffffffffffffffffffffffffffffffffffff1673ffffffffffffffffffffffffffffffffffffffff16815260200190815260200160002060008681526020019081526020016000206002018054905013151515611101576040517f08c379a00000000000000000000000000000000000000000000000000000000081526004018080602001828103825260288152602001807f726166666c6520646f6573206e6f74206861766520656e6f756768207469636b81526020017f657473206c65667400000000000000000000000000000000000000000000000081525060400191505060405180910390fd5b600090505b828110156111d257600160008673ffffffffffffffffffffffffffffffffffffffff1673ffffffffffffffffffffffffffffffffffffffff16815260200190815260200160002060008581526020019081526020016000206002013390806001815401808255809150509060018203906000526020600020016000909192909190916101000a81548173ffffffffffffffffffffffffffffffffffffffff021916908373ffffffffffffffffffffffffffffffffffffffff160217905550508080600101915050611106565b7fd87956f1e21b93713169652cf6773e743f928961e2c9b837fb100012af41f36b85853386604051808573ffffffffffffffffffffffffffffffffffffffff1673ffffffffffffffffffffffffffffffffffffffff1681526020018481526020018373ffffffffffffffffffffffffffffffffffffffff1673ffffffffffffffffffffffffffffffffffffffff16815260200182815260200194505050505060405180910390a160019150509392505050565b50805460008255906000526020600020908101906112a391906112a6565b50565b6112c891905b808211156112c45760008160009055506001016112ac565b5090565b905600a165627a7a72305820161fdef2cff21ecdfdbdc3f2f3a64d0d4c57f04d147a29c39d218c920b6c17330029",
    "source": "// contracts/Raffle.sol\npragma solidity ^0.4.22;\n\n/*\n  Requirements:\n    The creator sets the number of tickets and ticket price\n    Participants can buy as many tickets as are available\n    The nftValue is awarded to a random participant once all tickets are sold\n*/\n\ncontract Raffle {\n  struct RaffleInfo {\n    uint maxTickets;\n    uint price;\n    address[] participants;\n    address owner;\n    }\n\n  address public manager;\n  mapping(address => mapping(uint => RaffleInfo)) public raffles;\n\n  event CreateEvent(address _minter, uint _tokenId, address _owner, uint _maxTickets, uint _price);\n  event JoinEvent(address _minter, uint _tokenId, address _participant, uint _qty);\n  event DrawEvent(address _minter, uint _tokenId, address _winner, uint _nftValue);\n  event AbortEvent(address _minter, uint _tokenId, address _owner);\n  event Paid(address _from, uint _value);\n\n  function Raffle() public payable {\n    manager = msg.sender;\n  }\n\n  function createRaffle(uint _maxTickets, uint _price, address _owner, address _minter, uint _tokenId) public payable {\n    raffles[_minter][_tokenId].maxTickets = _maxTickets;\n    raffles[_minter][_tokenId].price = _price;\n    raffles[_minter][_tokenId].owner = _owner;\n\n    emit CreateEvent(_minter, _tokenId, _owner, _maxTickets, _price);\n  }\n\n  // `fallback` function called when eth is sent to Payable contract\n  function () public payable {\n    emit Paid(msg.sender, msg.value);\n  }\n\n  // purchase tickets\n  function joinRaffle(address _minter, uint _tokenId, uint _qty) public payable returns(bool) {\n\n    require(msg.value == raffles[_minter][_tokenId].price * _qty, \"message value is not equal to tickets' total price\");\n    require(int(raffles[_minter][_tokenId].participants.length) <= int(raffles[_minter][_tokenId].maxTickets - _qty), \"raffle does not have enough tickets left\");\n\n    for (uint i = 0; i < _qty; i++) {\n      raffles[_minter][_tokenId].participants.push(msg.sender);\n    }\n\n    emit JoinEvent (_minter, _tokenId, msg.sender, _qty);\n    \n    // if (raffles[_minter][_tokenId].participants.length == raffles[_minter][_tokenId].maxTickets) {\n    //   return draw(_minter, _tokenId);\n    // }\n    return true;\n  }\n\n  // award nftValue when all tickets are sold\n  function draw(address _minter, uint _tokenId) public restricted returns (address) {\n\n    if (raffles[_minter][_tokenId].participants.length > 0){\n      uint seed = block.number;\n      uint random = uint(keccak256(seed)) % raffles[_minter][_tokenId].participants.length;\n      address winner = raffles[_minter][_tokenId].participants[random];\n      uint nftValue = raffles[_minter][_tokenId].participants.length * raffles[_minter][_tokenId].price;\n      uint commission = nftValue / 10;\n\n      address(manager).transfer(commission);\n      address(raffles[_minter][_tokenId].owner).transfer(nftValue - commission);\n      // transfer nft to winner\n      // transferNft(winner, _minter, _tokenId);\n      delete raffles[_minter][_tokenId];\n      emit DrawEvent (_minter, _tokenId, winner, nftValue);\n      return winner;\n    }else{\n      // transfer nft to owner\n      // transferNft(raffles[_minter][_tokenId].owner, _minter, _tokenId);\n      delete raffles[_minter][_tokenId];\n      emit AbortEvent(_minter, _tokenId, raffles[_minter][_tokenId].owner);\n      return raffles[_minter][_tokenId].owner;\n    }\n  }\n\n  function transferNft(address _to, address _minter, uint _tokenId) internal{\n      // function safeTransferFrom(address _from, address _to, uint256 _tokenId, bytes data) external payable;\n      _minter.call(bytes4(sha3(\"safeTransferFrom(address, address, uint256)\")), address(this), _to, _tokenId);\n\n  }\n\n  function getParticipants(address _minter, uint _tokenId) public view returns (address []) {\n    return raffles[_minter][_tokenId].participants;\n  }\n\n  modifier restricted() {\n        require(msg.sender == manager, \"message sender is unauthorized\");\n        _;\n  }\n}",
    "sourcePath": "/Users/yulizhi/Downloads/anything-nft/conflux/raffle/contracts/Raffle.sol",
    "compiler": {
        "name": "solc",
        "version": "0.4.22+commit.4cb486ee.Emscripten.clang"
    },
    "schemaVersion": "3.3.4",
    "updatedAt": "2021-09-07T00:24:42.630Z",
    "devdoc": {
        "methods": {}
    },
    "userdoc": {
        "methods": {}
    }
}