{
    "contractName": "StakingForINFT",
    "abi": [
        {
            "inputs": [
                {
                    "internalType": "address",
                    "name": "_rewardsToken",
                    "type": "address"
                }
            ],
            "stateMutability": "nonpayable",
            "type": "constructor"
        },
        {
            "anonymous": false,
            "inputs": [
                {
                    "indexed": false,
                    "internalType": "uint256",
                    "name": "reward",
                    "type": "uint256"
                }
            ],
            "name": "LastReward",
            "type": "event"
        },
        {
            "anonymous": false,
            "inputs": [
                {
                    "indexed": true,
                    "internalType": "address",
                    "name": "previousOwner",
                    "type": "address"
                },
                {
                    "indexed": true,
                    "internalType": "address",
                    "name": "newOwner",
                    "type": "address"
                }
            ],
            "name": "OwnershipTransferred",
            "type": "event"
        },
        {
            "anonymous": false,
            "inputs": [
                {
                    "indexed": false,
                    "internalType": "address",
                    "name": "token",
                    "type": "address"
                },
                {
                    "indexed": false,
                    "internalType": "uint256",
                    "name": "amount",
                    "type": "uint256"
                }
            ],
            "name": "Recovered",
            "type": "event"
        },
        {
            "anonymous": false,
            "inputs": [
                {
                    "indexed": false,
                    "internalType": "uint256",
                    "name": "reward",
                    "type": "uint256"
                }
            ],
            "name": "RewardAdded",
            "type": "event"
        },
        {
            "anonymous": false,
            "inputs": [
                {
                    "indexed": true,
                    "internalType": "address",
                    "name": "user",
                    "type": "address"
                },
                {
                    "indexed": false,
                    "internalType": "uint256",
                    "name": "reward",
                    "type": "uint256"
                }
            ],
            "name": "RewardPaid",
            "type": "event"
        },
        {
            "anonymous": false,
            "inputs": [
                {
                    "indexed": false,
                    "internalType": "uint256",
                    "name": "newDuration",
                    "type": "uint256"
                }
            ],
            "name": "RewardsDurationUpdated",
            "type": "event"
        },
        {
            "anonymous": false,
            "inputs": [
                {
                    "indexed": true,
                    "internalType": "address",
                    "name": "user",
                    "type": "address"
                },
                {
                    "indexed": false,
                    "internalType": "uint256",
                    "name": "amount",
                    "type": "uint256"
                }
            ],
            "name": "Staked",
            "type": "event"
        },
        {
            "anonymous": false,
            "inputs": [
                {
                    "indexed": true,
                    "internalType": "address",
                    "name": "user",
                    "type": "address"
                },
                {
                    "indexed": false,
                    "internalType": "uint256",
                    "name": "amount",
                    "type": "uint256"
                }
            ],
            "name": "Withdrawn",
            "type": "event"
        },
        {
            "inputs": [],
            "name": "lastUpdateTime",
            "outputs": [
                {
                    "internalType": "uint256",
                    "name": "",
                    "type": "uint256"
                }
            ],
            "stateMutability": "view",
            "type": "function"
        },
        {
            "inputs": [],
            "name": "owner",
            "outputs": [
                {
                    "internalType": "address",
                    "name": "",
                    "type": "address"
                }
            ],
            "stateMutability": "view",
            "type": "function"
        },
        {
            "inputs": [],
            "name": "periodFinish",
            "outputs": [
                {
                    "internalType": "uint256",
                    "name": "",
                    "type": "uint256"
                }
            ],
            "stateMutability": "view",
            "type": "function"
        },
        {
            "inputs": [],
            "name": "renounceOwnership",
            "outputs": [],
            "stateMutability": "nonpayable",
            "type": "function"
        },
        {
            "inputs": [],
            "name": "rewardPerTokenStored",
            "outputs": [
                {
                    "internalType": "uint256",
                    "name": "",
                    "type": "uint256"
                }
            ],
            "stateMutability": "view",
            "type": "function"
        },
        {
            "inputs": [],
            "name": "rewardRate",
            "outputs": [
                {
                    "internalType": "uint256",
                    "name": "",
                    "type": "uint256"
                }
            ],
            "stateMutability": "view",
            "type": "function"
        },
        {
            "inputs": [
                {
                    "internalType": "address",
                    "name": "",
                    "type": "address"
                }
            ],
            "name": "rewards",
            "outputs": [
                {
                    "internalType": "uint256",
                    "name": "",
                    "type": "uint256"
                }
            ],
            "stateMutability": "view",
            "type": "function"
        },
        {
            "inputs": [],
            "name": "rewardsDuration",
            "outputs": [
                {
                    "internalType": "uint256",
                    "name": "",
                    "type": "uint256"
                }
            ],
            "stateMutability": "view",
            "type": "function"
        },
        {
            "inputs": [],
            "name": "tokenToReward",
            "outputs": [
                {
                    "internalType": "contract IERC20",
                    "name": "",
                    "type": "address"
                }
            ],
            "stateMutability": "view",
            "type": "function"
        },
        {
            "inputs": [
                {
                    "internalType": "address",
                    "name": "newOwner",
                    "type": "address"
                }
            ],
            "name": "transferOwnership",
            "outputs": [],
            "stateMutability": "nonpayable",
            "type": "function"
        },
        {
            "inputs": [
                {
                    "internalType": "address",
                    "name": "",
                    "type": "address"
                }
            ],
            "name": "userRewardPerTokenPaid",
            "outputs": [
                {
                    "internalType": "uint256",
                    "name": "",
                    "type": "uint256"
                }
            ],
            "stateMutability": "view",
            "type": "function"
        },
        {
            "inputs": [],
            "name": "totalSupply",
            "outputs": [
                {
                    "internalType": "uint256",
                    "name": "",
                    "type": "uint256"
                }
            ],
            "stateMutability": "view",
            "type": "function"
        },
        {
            "inputs": [
                {
                    "internalType": "address",
                    "name": "account",
                    "type": "address"
                }
            ],
            "name": "balanceOf",
            "outputs": [
                {
                    "internalType": "uint256",
                    "name": "",
                    "type": "uint256"
                }
            ],
            "stateMutability": "view",
            "type": "function"
        },
        {
            "inputs": [],
            "name": "lastTimeRewardApplicable",
            "outputs": [
                {
                    "internalType": "uint256",
                    "name": "",
                    "type": "uint256"
                }
            ],
            "stateMutability": "view",
            "type": "function"
        },
        {
            "inputs": [],
            "name": "rewardPerToken",
            "outputs": [
                {
                    "internalType": "uint256",
                    "name": "",
                    "type": "uint256"
                }
            ],
            "stateMutability": "view",
            "type": "function"
        },
        {
            "inputs": [
                {
                    "internalType": "address",
                    "name": "account",
                    "type": "address"
                }
            ],
            "name": "earned",
            "outputs": [
                {
                    "internalType": "uint256",
                    "name": "",
                    "type": "uint256"
                }
            ],
            "stateMutability": "view",
            "type": "function"
        },
        {
            "inputs": [],
            "name": "getRewardForDuration",
            "outputs": [
                {
                    "internalType": "uint256",
                    "name": "",
                    "type": "uint256"
                }
            ],
            "stateMutability": "view",
            "type": "function"
        },
        {
            "inputs": [],
            "name": "stake",
            "outputs": [],
            "stateMutability": "payable",
            "type": "function"
        },
        {
            "inputs": [
                {
                    "internalType": "uint256",
                    "name": "amount",
                    "type": "uint256"
                }
            ],
            "name": "withdraw",
            "outputs": [],
            "stateMutability": "nonpayable",
            "type": "function"
        },
        {
            "inputs": [],
            "name": "getReward",
            "outputs": [],
            "stateMutability": "nonpayable",
            "type": "function"
        },
        {
            "inputs": [],
            "name": "exit",
            "outputs": [],
            "stateMutability": "nonpayable",
            "type": "function"
        },
        {
            "inputs": [
                {
                    "internalType": "uint256",
                    "name": "reward",
                    "type": "uint256"
                }
            ],
            "name": "notifyRewardAmount",
            "outputs": [],
            "stateMutability": "nonpayable",
            "type": "function"
        },
        {
            "inputs": [
                {
                    "internalType": "uint256",
                    "name": "timestamp",
                    "type": "uint256"
                }
            ],
            "name": "updatePeriodFinish",
            "outputs": [],
            "stateMutability": "nonpayable",
            "type": "function"
        },
        {
            "inputs": [
                {
                    "internalType": "uint256",
                    "name": "_rewardsDuration",
                    "type": "uint256"
                }
            ],
            "name": "setRewardsDuration",
            "outputs": [],
            "stateMutability": "nonpayable",
            "type": "function"
        }
    ],
    "bytecode": "0x60806040526000600355600060045562093a806005553480156200002257600080fd5b506040516200221b3803806200221b83398181016040528101906200004891906200019a565b620000686200005c620000b760201b60201c565b620000bf60201b60201c565b6001808190555080600260006101000a81548173ffffffffffffffffffffffffffffffffffffffff021916908373ffffffffffffffffffffffffffffffffffffffff1602179055505062000214565b600033905090565b60008060009054906101000a900473ffffffffffffffffffffffffffffffffffffffff169050816000806101000a81548173ffffffffffffffffffffffffffffffffffffffff021916908373ffffffffffffffffffffffffffffffffffffffff1602179055508173ffffffffffffffffffffffffffffffffffffffff168173ffffffffffffffffffffffffffffffffffffffff167f8be0079c531659141344cd1fd0a4f28419497f9722a3daafe3b4186f6b6457e060405160405180910390a35050565b6000815190506200019481620001fa565b92915050565b600060208284031215620001ad57600080fd5b6000620001bd8482850162000183565b91505092915050565b6000620001d382620001da565b9050919050565b600073ffffffffffffffffffffffffffffffffffffffff82169050919050565b6200020581620001c6565b81146200021157600080fd5b50565b611ff780620002246000396000f3fe60806040526004361061014a5760003560e01c8063715018a6116100b6578063cc1a378f1161006f578063cc1a378f1461044e578063cd3daf9d14610477578063df136d65146104a2578063e9fad8ee146104cd578063ebe2b12b146104e4578063f2fde38b1461050f5761014a565b8063715018a61461034e5780637b0a47ee1461036557806380faa57d146103905780638b876347146103bb5780638da5cb5b146103f8578063c8f33c91146104235761014a565b8063386a952511610108578063386a9525146102735780633a4b66f11461029e5780633c6b16ab146102a85780633d18b912146102d1578063556f6e6b146102e857806370a08231146103115761014a565b80628cc2621461014f5780630700037d1461018c57806318160ddd146101c95780631c1f78eb146101f457806329f016631461021f5780632e1a7d4d1461024a575b600080fd5b34801561015b57600080fd5b506101766004803603810190610171919061192f565b610538565b6040516101839190611d71565b60405180910390f35b34801561019857600080fd5b506101b360048036038101906101ae919061192f565b610656565b6040516101c09190611d71565b60405180910390f35b3480156101d557600080fd5b506101de61066e565b6040516101eb9190611d71565b60405180910390f35b34801561020057600080fd5b50610209610678565b6040516102169190611d71565b60405180910390f35b34801561022b57600080fd5b50610234610696565b6040516102419190611c76565b60405180910390f35b34801561025657600080fd5b50610271600480360381019061026c9190611981565b6106bc565b005b34801561027f57600080fd5b50610288610981565b6040516102959190611d71565b60405180910390f35b6102a6610987565b005b3480156102b457600080fd5b506102cf60048036038101906102ca9190611981565b610c04565b005b3480156102dd57600080fd5b506102e6610f4c565b005b3480156102f457600080fd5b5061030f600480360381019061030a9190611981565b61121a565b005b34801561031d57600080fd5b506103386004803603810190610333919061192f565b611386565b6040516103459190611d71565b60405180910390f35b34801561035a57600080fd5b506103636113cf565b005b34801561037157600080fd5b5061037a611457565b6040516103879190611d71565b60405180910390f35b34801561039c57600080fd5b506103a561145d565b6040516103b29190611d71565b60405180910390f35b3480156103c757600080fd5b506103e260048036038101906103dd919061192f565b611470565b6040516103ef9190611d71565b60405180910390f35b34801561040457600080fd5b5061040d611488565b60405161041a9190611c32565b60405180910390f35b34801561042f57600080fd5b506104386114b1565b6040516104459190611d71565b60405180910390f35b34801561045a57600080fd5b5061047560048036038101906104709190611981565b6114b7565b005b34801561048357600080fd5b5061048c6115ba565b6040516104999190611d71565b60405180910390f35b3480156104ae57600080fd5b506104b7611648565b6040516104c49190611d71565b60405180910390f35b3480156104d957600080fd5b506104e261164e565b005b3480156104f057600080fd5b506104f96116a0565b6040516105069190611d71565b60405180910390f35b34801561051b57600080fd5b506105366004803603810190610531919061192f565b6116a6565b005b600061064f600960008473ffffffffffffffffffffffffffffffffffffffff1673ffffffffffffffffffffffffffffffffffffffff16815260200190815260200160002054610641670de0b6b3a76400006106336105e5600860008973ffffffffffffffffffffffffffffffffffffffff1673ffffffffffffffffffffffffffffffffffffffff168152602001908152602001600020546105d76115ba565b61179e90919063ffffffff16565b600b60008973ffffffffffffffffffffffffffffffffffffffff1673ffffffffffffffffffffffffffffffffffffffff168152602001908152602001600020546117b490919063ffffffff16565b6117ca90919063ffffffff16565b6117e090919063ffffffff16565b9050919050565b60096020528060005260406000206000915090505481565b6000600a54905090565b60006106916005546004546117b490919063ffffffff16565b905090565b600260009054906101000a900473ffffffffffffffffffffffffffffffffffffffff1681565b60026001541415610702576040517f08c379a00000000000000000000000000000000000000000000000000000000081526004016106f990611d51565b60405180910390fd5b6002600181905550336107136115ba565b60078190555061072161145d565b600681905550600073ffffffffffffffffffffffffffffffffffffffff168173ffffffffffffffffffffffffffffffffffffffff16146107ee5761076481610538565b600960008373ffffffffffffffffffffffffffffffffffffffff1673ffffffffffffffffffffffffffffffffffffffff16815260200190815260200160002081905550600754600860008373ffffffffffffffffffffffffffffffffffffffff1673ffffffffffffffffffffffffffffffffffffffff168152602001908152602001600020819055505b60008211610831576040517f08c379a000000000000000000000000000000000000000000000000000000000815260040161082890611cf1565b60405180910390fd5b61084682600a5461179e90919063ffffffff16565b600a8190555061089e82600b60003373ffffffffffffffffffffffffffffffffffffffff1673ffffffffffffffffffffffffffffffffffffffff1681526020019081526020016000205461179e90919063ffffffff16565b600b60003373ffffffffffffffffffffffffffffffffffffffff1673ffffffffffffffffffffffffffffffffffffffff168152602001908152602001600020819055503373ffffffffffffffffffffffffffffffffffffffff166108fc839081150290604051600060405180830381858888f19350505050158015610927573d6000803e3d6000fd5b503373ffffffffffffffffffffffffffffffffffffffff167f7084f5476618d8e60b11ef0d7d3f06914655adb8793e28ff7f018d4c76d505d58360405161096e9190611d71565b60405180910390a2506001808190555050565b60055481565b600260015414156109cd576040517f08c379a00000000000000000000000000000000000000000000000000000000081526004016109c490611d51565b60405180910390fd5b6002600181905550336109de6115ba565b6007819055506109ec61145d565b600681905550600073ffffffffffffffffffffffffffffffffffffffff168173ffffffffffffffffffffffffffffffffffffffff1614610ab957610a2f81610538565b600960008373ffffffffffffffffffffffffffffffffffffffff1673ffffffffffffffffffffffffffffffffffffffff16815260200190815260200160002081905550600754600860008373ffffffffffffffffffffffffffffffffffffffff1673ffffffffffffffffffffffffffffffffffffffff168152602001908152602001600020819055505b60003411610afc576040517f08c379a0000000000000000000000000000000000000000000000000000000008152600401610af390611cd1565b60405180910390fd5b610b1134600a546117e090919063ffffffff16565b600a81905550610b6934600b60003373ffffffffffffffffffffffffffffffffffffffff1673ffffffffffffffffffffffffffffffffffffffff168152602001908152602001600020546117e090919063ffffffff16565b600b60003373ffffffffffffffffffffffffffffffffffffffff1673ffffffffffffffffffffffffffffffffffffffff168152602001908152602001600020819055503373ffffffffffffffffffffffffffffffffffffffff167f9e71bc8eea02a63969f509818f2dafb9254532904319f9dbda79b67bd34a5f3d34604051610bf29190611d71565b60405180910390a25060018081905550565b6000610c0e6115ba565b600781905550610c1c61145d565b600681905550600073ffffffffffffffffffffffffffffffffffffffff168173ffffffffffffffffffffffffffffffffffffffff1614610ce957610c5f81610538565b600960008373ffffffffffffffffffffffffffffffffffffffff1673ffffffffffffffffffffffffffffffffffffffff16815260200190815260200160002081905550600754600860008373ffffffffffffffffffffffffffffffffffffffff1673ffffffffffffffffffffffffffffffffffffffff168152602001908152602001600020819055505b6003544210610d4b57610d07600554836117ca90919063ffffffff16565b6004819055507fac8476b24b2dc25bfc13ace2106d4f506269e6e288858c8383fddca2a2116382600454604051610d3e9190611d71565b60405180910390a1610de6565b6000610d624260035461179e90919063ffffffff16565b90506000610d7b600454836117b490919063ffffffff16565b9050610da4600554610d9683876117e090919063ffffffff16565b6117ca90919063ffffffff16565b6004819055507fac8476b24b2dc25bfc13ace2106d4f506269e6e288858c8383fddca2a2116382600454604051610ddb9190611d71565b60405180910390a150505b6000600260009054906101000a900473ffffffffffffffffffffffffffffffffffffffff1673ffffffffffffffffffffffffffffffffffffffff166370a08231306040518263ffffffff1660e01b8152600401610e439190611c32565b60206040518083038186803b158015610e5b57600080fd5b505afa158015610e6f573d6000803e3d6000fd5b505050506040513d601f19601f82011682018060405250810190610e9391906119aa565b9050610eaa600554826117ca90919063ffffffff16565b6004541115610eee576040517f08c379a0000000000000000000000000000000000000000000000000000000008152600401610ee590611d31565b60405180910390fd5b42600681905550610f0a600554426117e090919063ffffffff16565b6003819055507fde88a922e0d3b88b24e9623efeb464919c6bf9f66857a65e2bfcf2ce87a9433d83604051610f3f9190611d71565b60405180910390a1505050565b60026001541415610f92576040517f08c379a0000000000000000000000000000000000000000000000000000000008152600401610f8990611d51565b60405180910390fd5b600260018190555033610fa36115ba565b600781905550610fb161145d565b600681905550600073ffffffffffffffffffffffffffffffffffffffff168173ffffffffffffffffffffffffffffffffffffffff161461107e57610ff481610538565b600960008373ffffffffffffffffffffffffffffffffffffffff1673ffffffffffffffffffffffffffffffffffffffff16815260200190815260200160002081905550600754600860008373ffffffffffffffffffffffffffffffffffffffff1673ffffffffffffffffffffffffffffffffffffffff168152602001908152602001600020819055505b6000600960003373ffffffffffffffffffffffffffffffffffffffff1673ffffffffffffffffffffffffffffffffffffffff168152602001908152602001600020549050600081111561120f576000600960003373ffffffffffffffffffffffffffffffffffffffff1673ffffffffffffffffffffffffffffffffffffffff16815260200190815260200160002081905550600260009054906101000a900473ffffffffffffffffffffffffffffffffffffffff1673ffffffffffffffffffffffffffffffffffffffff1663a9059cbb33836040518363ffffffff1660e01b815260040161116d929190611c4d565b602060405180830381600087803b15801561118757600080fd5b505af115801561119b573d6000803e3d6000fd5b505050506040513d601f19601f820116820180604052508101906111bf9190611958565b503373ffffffffffffffffffffffffffffffffffffffff167fe2403640ba68fed3a2f88b7557551d1993f84b99bb10ff833f0cf8db0c5e0486826040516112069190611d71565b60405180910390a25b505060018081905550565b6112226117f6565b73ffffffffffffffffffffffffffffffffffffffff16611240611488565b73ffffffffffffffffffffffffffffffffffffffff1614611296576040517f08c379a000000000000000000000000000000000000000000000000000000000815260040161128d90611d11565b60405180910390fd5b60006112a06115ba565b6007819055506112ae61145d565b600681905550600073ffffffffffffffffffffffffffffffffffffffff168173ffffffffffffffffffffffffffffffffffffffff161461137b576112f181610538565b600960008373ffffffffffffffffffffffffffffffffffffffff1673ffffffffffffffffffffffffffffffffffffffff16815260200190815260200160002081905550600754600860008373ffffffffffffffffffffffffffffffffffffffff1673ffffffffffffffffffffffffffffffffffffffff168152602001908152602001600020819055505b816003819055505050565b6000600b60008373ffffffffffffffffffffffffffffffffffffffff1673ffffffffffffffffffffffffffffffffffffffff168152602001908152602001600020549050919050565b6113d76117f6565b73ffffffffffffffffffffffffffffffffffffffff166113f5611488565b73ffffffffffffffffffffffffffffffffffffffff161461144b576040517f08c379a000000000000000000000000000000000000000000000000000000000815260040161144290611d11565b60405180910390fd5b61145560006117fe565b565b60045481565b600061146b426003546118c2565b905090565b60086020528060005260406000206000915090505481565b60008060009054906101000a900473ffffffffffffffffffffffffffffffffffffffff16905090565b60065481565b6114bf6117f6565b73ffffffffffffffffffffffffffffffffffffffff166114dd611488565b73ffffffffffffffffffffffffffffffffffffffff1614611533576040517f08c379a000000000000000000000000000000000000000000000000000000000815260040161152a90611d11565b60405180910390fd5b6003544211611577576040517f08c379a000000000000000000000000000000000000000000000000000000000815260040161156e90611c91565b60405180910390fd5b806005819055507ffb46ca5a5e06d4540d6387b930a7c978bce0db5f449ec6b3f5d07c6e1d44f2d36005546040516115af9190611d71565b60405180910390a150565b600080600a5414156115d0576007549050611645565b611642611631600a54611623670de0b6b3a76400006116156004546116076006546115f961145d565b61179e90919063ffffffff16565b6117b490919063ffffffff16565b6117b490919063ffffffff16565b6117ca90919063ffffffff16565b6007546117e090919063ffffffff16565b90505b90565b60075481565b611696600b60003373ffffffffffffffffffffffffffffffffffffffff1673ffffffffffffffffffffffffffffffffffffffff168152602001908152602001600020546106bc565b61169e610f4c565b565b60035481565b6116ae6117f6565b73ffffffffffffffffffffffffffffffffffffffff166116cc611488565b73ffffffffffffffffffffffffffffffffffffffff1614611722576040517f08c379a000000000000000000000000000000000000000000000000000000000815260040161171990611d11565b60405180910390fd5b600073ffffffffffffffffffffffffffffffffffffffff168173ffffffffffffffffffffffffffffffffffffffff161415611792576040517f08c379a000000000000000000000000000000000000000000000000000000000815260040161178990611cb1565b60405180910390fd5b61179b816117fe565b50565b600081836117ac9190611e7e565b905092915050565b600081836117c29190611e24565b905092915050565b600081836117d89190611df3565b905092915050565b600081836117ee9190611d9d565b905092915050565b600033905090565b60008060009054906101000a900473ffffffffffffffffffffffffffffffffffffffff169050816000806101000a81548173ffffffffffffffffffffffffffffffffffffffff021916908373ffffffffffffffffffffffffffffffffffffffff1602179055508173ffffffffffffffffffffffffffffffffffffffff168173ffffffffffffffffffffffffffffffffffffffff167f8be0079c531659141344cd1fd0a4f28419497f9722a3daafe3b4186f6b6457e060405160405180910390a35050565b60008183106118d157816118d3565b825b905092915050565b6000813590506118ea81611f7c565b92915050565b6000815190506118ff81611f93565b92915050565b60008135905061191481611faa565b92915050565b60008151905061192981611faa565b92915050565b60006020828403121561194157600080fd5b600061194f848285016118db565b91505092915050565b60006020828403121561196a57600080fd5b6000611978848285016118f0565b91505092915050565b60006020828403121561199357600080fd5b60006119a184828501611905565b91505092915050565b6000602082840312156119bc57600080fd5b60006119ca8482850161191a565b91505092915050565b6119dc81611eb2565b82525050565b6119eb81611efa565b82525050565b60006119fe605883611d8c565b91507f50726576696f7573207265776172647320706572696f64206d7573742062652060008301527f636f6d706c657465206265666f7265206368616e67696e67207468652064757260208301527f6174696f6e20666f7220746865206e657720706572696f6400000000000000006040830152606082019050919050565b6000611a8a602683611d8c565b91507f4f776e61626c653a206e6577206f776e657220697320746865207a65726f206160008301527f64647265737300000000000000000000000000000000000000000000000000006020830152604082019050919050565b6000611af0600e83611d8c565b91507f43616e6e6f74207374616b6520300000000000000000000000000000000000006000830152602082019050919050565b6000611b30601183611d8c565b91507f43616e6e6f7420776974686472617720300000000000000000000000000000006000830152602082019050919050565b6000611b70602083611d8c565b91507f4f776e61626c653a2063616c6c6572206973206e6f7420746865206f776e65726000830152602082019050919050565b6000611bb0601883611d8c565b91507f50726f76696465642072657761726420746f6f206869676800000000000000006000830152602082019050919050565b6000611bf0601f83611d8c565b91507f5265656e7472616e637947756172643a207265656e7472616e742063616c6c006000830152602082019050919050565b611c2c81611ef0565b82525050565b6000602082019050611c4760008301846119d3565b92915050565b6000604082019050611c6260008301856119d3565b611c6f6020830184611c23565b9392505050565b6000602082019050611c8b60008301846119e2565b92915050565b60006020820190508181036000830152611caa816119f1565b9050919050565b60006020820190508181036000830152611cca81611a7d565b9050919050565b60006020820190508181036000830152611cea81611ae3565b9050919050565b60006020820190508181036000830152611d0a81611b23565b9050919050565b60006020820190508181036000830152611d2a81611b63565b9050919050565b60006020820190508181036000830152611d4a81611ba3565b9050919050565b60006020820190508181036000830152611d6a81611be3565b9050919050565b6000602082019050611d866000830184611c23565b92915050565b600082825260208201905092915050565b6000611da882611ef0565b9150611db383611ef0565b9250827fffffffffffffffffffffffffffffffffffffffffffffffffffffffffffffffff03821115611de857611de7611f1e565b5b828201905092915050565b6000611dfe82611ef0565b9150611e0983611ef0565b925082611e1957611e18611f4d565b5b828204905092915050565b6000611e2f82611ef0565b9150611e3a83611ef0565b9250817fffffffffffffffffffffffffffffffffffffffffffffffffffffffffffffffff0483118215151615611e7357611e72611f1e565b5b828202905092915050565b6000611e8982611ef0565b9150611e9483611ef0565b925082821015611ea757611ea6611f1e565b5b828203905092915050565b6000611ebd82611ed0565b9050919050565b60008115159050919050565b600073ffffffffffffffffffffffffffffffffffffffff82169050919050565b6000819050919050565b6000611f0582611f0c565b9050919050565b6000611f1782611ed0565b9050919050565b7f4e487b7100000000000000000000000000000000000000000000000000000000600052601160045260246000fd5b7f4e487b7100000000000000000000000000000000000000000000000000000000600052601260045260246000fd5b611f8581611eb2565b8114611f9057600080fd5b50565b611f9c81611ec4565b8114611fa757600080fd5b50565b611fb381611ef0565b8114611fbe57600080fd5b5056fea26469706673582212207b43af6400c514da222574a6e2cfc1a26b6a04e86855df9a21f1fd213591b70b64736f6c63430008000033",
    "immutableReferences": {},
    "source": "pragma solidity ^0.8.0;\n\nimport \"@openzeppelin/contracts/utils/math/Math.sol\";\nimport \"@openzeppelin/contracts/utils/math/SafeMath.sol\";\nimport \"@openzeppelin/contracts/token/ERC20/ERC20.sol\";\nimport \"@openzeppelin/contracts/token/ERC20/utils/SafeERC20.sol\";\nimport \"@openzeppelin/contracts/access/Ownable.sol\";\n\n// Inheritance\nimport \"./interfaces/IStakingRewards.sol\";\nimport \"./ReentrancyGuard.sol\";\n\ncontract StakingForINFT is Ownable, IStakingRewards, ReentrancyGuard {\n    using SafeMath for uint256;\n    using SafeERC20 for IERC20;\n\n    /* ========== STATE VARIABLES ========== */\n\n    IERC20 public tokenToReward;\n    uint256 public periodFinish = 0;\n    uint256 public rewardRate = 0;\n    uint256 public rewardsDuration = 7 days;\n    uint256 public lastUpdateTime;\n    uint256 public rewardPerTokenStored;\n\n    mapping(address => uint256) public userRewardPerTokenPaid;\n    mapping(address => uint256) public rewards;\n\n    uint256 private _totalSupply; //total amount of staked tokens\n    mapping(address => uint256) private _balances;\n\n    /* ========== CONSTRUCTOR ========== */\n\n    constructor(\n        address _rewardsToken\n    ) Ownable() {\n        tokenToReward = IERC20(_rewardsToken);\n    }\n\n    /* ========== VIEWS ========== */\n\n    function totalSupply() external view override returns (uint256) {\n        return _totalSupply;\n    }\n\n    function balanceOf(address account) external view override returns (uint256) {\n        return _balances[account];\n    }\n\n    function lastTimeRewardApplicable() public view override returns (uint256) {\n        return Math.min(block.timestamp, periodFinish);\n    }\n\n    function rewardPerToken() public view override returns (uint256) {\n        if (_totalSupply == 0) {\n            return rewardPerTokenStored;\n        }\n        return\n            rewardPerTokenStored.add(\n                lastTimeRewardApplicable().sub(lastUpdateTime).mul(rewardRate).mul(1e18).div(_totalSupply)\n            );\n    }\n\n    function earned(address account) public view override returns (uint256) {\n        return _balances[account].mul(rewardPerToken().sub(userRewardPerTokenPaid[account])).div(1e18).add(rewards[account]);\n    }\n\n    function getRewardForDuration() external view override returns (uint256) {\n        return rewardRate.mul(rewardsDuration);\n    }\n\n    /* ========== MUTATIVE FUNCTIONS ========== */\n\n    function stake() external payable nonReentrant updateReward(msg.sender) override{\n        require(msg.value > 0, \"Cannot stake 0\");\n        _totalSupply = _totalSupply.add(msg.value);\n        _balances[msg.sender] = _balances[msg.sender].add(msg.value);\n        emit Staked(msg.sender, msg.value);\n    }\n\n    function withdraw(uint256 amount) public nonReentrant updateReward(msg.sender) override{\n        require(amount > 0, \"Cannot withdraw 0\");\n        _totalSupply = _totalSupply.sub(amount);\n        _balances[msg.sender] = _balances[msg.sender].sub(amount);\n        payable(msg.sender).transfer(amount);\n        emit Withdrawn(msg.sender, amount);\n    }\n\n    function getReward() public nonReentrant updateReward(msg.sender) override{\n        uint256 reward = rewards[msg.sender];\n        if (reward > 0) {\n            rewards[msg.sender] = 0;\n            tokenToReward.transfer(msg.sender, reward);\n            emit RewardPaid(msg.sender, reward);\n        }\n    }\n\n    function exit() external override{\n        withdraw(_balances[msg.sender]);\n        getReward();\n    }\n\n    /* ========== RESTRICTED FUNCTIONS ========== */\n\n    function notifyRewardAmount(uint256 reward) external updateReward(address(0)){\n        if (block.timestamp >= periodFinish) {\n            rewardRate = reward.div(rewardsDuration);\n            emit LastReward(rewardRate);\n        } else {\n            uint256 remaining = periodFinish.sub(block.timestamp);\n            uint256 leftover = remaining.mul(rewardRate);\n            rewardRate = reward.add(leftover).div(rewardsDuration);\n            emit LastReward(rewardRate);\n        }\n\n        // Ensure the provided reward amount is not more than the balance in the contract.\n        // This keeps the reward rate in the right range, preventing overflows due to\n        // very high values of rewardRate in the earned and rewardsPerToken functions;\n        // Reward + leftover must be less than 2^256 / 10^18 to avoid overflow.\n        uint256 balance = tokenToReward.balanceOf(address(this));\n        require(rewardRate <= balance.div(rewardsDuration), \"Provided reward too high\");\n\n        lastUpdateTime = block.timestamp;\n        periodFinish = block.timestamp.add(rewardsDuration);\n        emit RewardAdded(reward);\n    }\n\n    // End rewards emission earlier\n    function updatePeriodFinish(uint timestamp) external onlyOwner updateReward(address(0)) {\n        periodFinish = timestamp;\n    }\n\n    function setRewardsDuration(uint256 _rewardsDuration) external onlyOwner {\n        require(\n            block.timestamp > periodFinish,\n            \"Previous rewards period must be complete before changing the duration for the new period\"\n        );\n        rewardsDuration = _rewardsDuration;\n        emit RewardsDurationUpdated(rewardsDuration);\n    }\n\n    /* ========== MODIFIERS ========== */\n\n    modifier updateReward(address account) {\n        rewardPerTokenStored = rewardPerToken();\n        lastUpdateTime = lastTimeRewardApplicable();\n        if (account != address(0)) {\n            rewards[account] = earned(account);\n            userRewardPerTokenPaid[account] = rewardPerTokenStored;\n        }\n        _;\n    }\n\n    /* ========== EVENTS ========== */\n\n    event RewardAdded(uint256 reward);\n    event Staked(address indexed user, uint256 amount);\n    event Withdrawn(address indexed user, uint256 amount);\n    event RewardPaid(address indexed user, uint256 reward);\n    event RewardsDurationUpdated(uint256 newDuration);\n    event Recovered(address token, uint256 amount);\n    event LastReward(uint256 reward);\n}",
    "sourcePath": "/Users/qinchenwang/Desktop/anything-nft/conflux/contracts/StakingForINFT.sol",
    "compiler": {
        "name": "solc",
        "version": "0.8.0+commit.c7dfd78e.Emscripten.clang"
    },
    "schemaVersion": "3.3.4",
    "updatedAt": "2021-08-28T11:57:57.789Z",
    "devdoc": {
        "kind": "dev",
        "methods": {
            "owner()": {
                "details": "Returns the address of the current owner."
            },
            "renounceOwnership()": {
                "details": "Leaves the contract without owner. It will not be possible to call `onlyOwner` functions anymore. Can only be called by the current owner. NOTE: Renouncing ownership will leave the contract without an owner, thereby removing any functionality that is only available to the owner."
            },
            "transferOwnership(address)": {
                "details": "Transfers ownership of the contract to a new account (`newOwner`). Can only be called by the current owner."
            }
        },
        "version": 1
    },
    "userdoc": {
        "kind": "user",
        "methods": {},
        "version": 1
    }
}