{
  "contractName": "Raffle",
  "abi": [
    {
      "constant": true,
      "inputs": [],
      "name": "manager",
      "outputs": [
        {
          "name": "",
          "type": "address"
        }
      ],
      "payable": false,
      "stateMutability": "view",
      "type": "function"
    },
    {
      "constant": true,
      "inputs": [
        {
          "name": "",
          "type": "address"
        }
      ],
      "name": "raffles",
      "outputs": [
        {
          "name": "maxTickets",
          "type": "uint256"
        },
        {
          "name": "price",
          "type": "uint256"
        },
        {
          "name": "owner",
          "type": "address"
        },
        {
          "name": "tokenId",
          "type": "uint256"
        }
      ],
      "payable": false,
      "stateMutability": "view",
      "type": "function"
    },
    {
      "inputs": [],
      "payable": true,
      "stateMutability": "payable",
      "type": "constructor"
    },
    {
      "payable": true,
      "stateMutability": "payable",
      "type": "fallback"
    },
    {
      "anonymous": false,
      "inputs": [
        {
          "indexed": false,
          "name": "_nft",
          "type": "address"
        },
        {
          "indexed": false,
          "name": "_owner",
          "type": "address"
        },
        {
          "indexed": false,
          "name": "_maxTickets",
          "type": "uint256"
        },
        {
          "indexed": false,
          "name": "_price",
          "type": "uint256"
        }
      ],
      "name": "CreateEvent",
      "type": "event"
    },
    {
      "anonymous": false,
      "inputs": [
        {
          "indexed": false,
          "name": "_nft",
          "type": "address"
        },
        {
          "indexed": false,
          "name": "_participant",
          "type": "address"
        },
        {
          "indexed": false,
          "name": "_qty",
          "type": "uint256"
        }
      ],
      "name": "JoinEvent",
      "type": "event"
    },
    {
      "anonymous": false,
      "inputs": [
        {
          "indexed": false,
          "name": "_nft",
          "type": "address"
        },
        {
          "indexed": false,
          "name": "_winner",
          "type": "address"
        },
        {
          "indexed": false,
          "name": "_nftValue",
          "type": "uint256"
        }
      ],
      "name": "DrawEvent",
      "type": "event"
    },
    {
      "anonymous": false,
      "inputs": [
        {
          "indexed": false,
          "name": "_nft",
          "type": "address"
        },
        {
          "indexed": false,
          "name": "_owner",
          "type": "address"
        }
      ],
      "name": "AbortEvent",
      "type": "event"
    },
    {
      "anonymous": false,
      "inputs": [
        {
          "indexed": false,
          "name": "_from",
          "type": "address"
        },
        {
          "indexed": false,
          "name": "_value",
          "type": "uint256"
        }
      ],
      "name": "Paid",
      "type": "event"
    },
    {
      "constant": false,
      "inputs": [
        {
          "name": "_maxTickets",
          "type": "uint256"
        },
        {
          "name": "_price",
          "type": "uint256"
        },
        {
          "name": "_owner",
          "type": "address"
        },
        {
          "name": "_nft",
          "type": "address"
        },
        {
          "name": "_tokenId",
          "type": "uint256"
        }
      ],
      "name": "createRaffle",
      "outputs": [],
      "payable": true,
      "stateMutability": "payable",
      "type": "function"
    },
    {
      "constant": false,
      "inputs": [
        {
          "name": "_nft",
          "type": "address"
        },
        {
          "name": "_qty",
          "type": "uint256"
        }
      ],
      "name": "joinRaffle",
      "outputs": [
        {
          "name": "",
          "type": "bool"
        }
      ],
      "payable": true,
      "stateMutability": "payable",
      "type": "function"
    },
    {
      "constant": false,
      "inputs": [
        {
          "name": "_nft",
          "type": "address"
        }
      ],
      "name": "draw",
      "outputs": [
        {
          "name": "",
          "type": "bool"
        }
      ],
      "payable": false,
      "stateMutability": "nonpayable",
      "type": "function"
    },
    {
      "constant": true,
      "inputs": [
        {
          "name": "_nft",
          "type": "address"
        }
      ],
      "name": "getParticipants",
      "outputs": [
        {
          "name": "",
          "type": "address[]"
        }
      ],
      "payable": false,
      "stateMutability": "view",
      "type": "function"
    }
  ],
  "bytecode": "0x608060405260405180807f636678746573743a6163653567636d763178313138747332747461346b38336181526020017f7370377378727a3536367734646566756872000000000000000000000000000081525060320190506040518091039020600190046000806101000a81548173ffffffffffffffffffffffffffffffffffffffff021916908373ffffffffffffffffffffffffffffffffffffffff16021790555033600160006101000a81548173ffffffffffffffffffffffffffffffffffffffff021916908373ffffffffffffffffffffffffffffffffffffffff1602179055506113d2806100f36000396000f300608060405260043610610078576000357c0100000000000000000000000000000000000000000000000000000000900463ffffffff1680631c03e4eb146100e557806343a1ca771461015957806347a59b74146101b1578063481c6a751461020c57806367c748f514610263578063b7c5e101146102fb575b7f737c69225d647e5994eab1a6c301bf6d9232beb2759ae1e27a8966b4732bc4893334604051808373ffffffffffffffffffffffffffffffffffffffff1673ffffffffffffffffffffffffffffffffffffffff1681526020018281526020019250505060405180910390a1005b6101576004803603810190808035906020019092919080359060200190929190803573ffffffffffffffffffffffffffffffffffffffff169060200190929190803573ffffffffffffffffffffffffffffffffffffffff16906020019092919080359060200190929190505050610393565b005b610197600480360381019080803573ffffffffffffffffffffffffffffffffffffffff16906020019092919080359060200190929190505050610597565b604051808215151515815260200191505060405180910390f35b3480156101bd57600080fd5b506101f2600480360381019080803573ffffffffffffffffffffffffffffffffffffffff1690602001909291905050506109ac565b604051808215151515815260200191505060405180910390f35b34801561021857600080fd5b506102216110ae565b604051808273ffffffffffffffffffffffffffffffffffffffff1673ffffffffffffffffffffffffffffffffffffffff16815260200191505060405180910390f35b34801561026f57600080fd5b506102a4600480360381019080803573ffffffffffffffffffffffffffffffffffffffff1690602001909291905050506110d4565b604051808581526020018481526020018373ffffffffffffffffffffffffffffffffffffffff1673ffffffffffffffffffffffffffffffffffffffff16815260200182815260200194505050505060405180910390f35b34801561030757600080fd5b5061033c600480360381019080803573ffffffffffffffffffffffffffffffffffffffff169060200190929190505050611124565b6040518080602001828103825283818151815260200191508051906020019060200280838360005b8381101561037f578082015181840152602081019050610364565b505050509050019250505060405180910390f35b84600260008473ffffffffffffffffffffffffffffffffffffffff1673ffffffffffffffffffffffffffffffffffffffff1681526020019081526020016000206000018190555083600260008473ffffffffffffffffffffffffffffffffffffffff1673ffffffffffffffffffffffffffffffffffffffff1681526020019081526020016000206001018190555082600260008473ffffffffffffffffffffffffffffffffffffffff1673ffffffffffffffffffffffffffffffffffffffff16815260200190815260200160002060030160006101000a81548173ffffffffffffffffffffffffffffffffffffffff021916908373ffffffffffffffffffffffffffffffffffffffff16021790555080600260008473ffffffffffffffffffffffffffffffffffffffff1673ffffffffffffffffffffffffffffffffffffffff168152602001908152602001600020600401819055507f95ea1f7a87a45438599cfb5ea9dd57fa8e852d1f501d0daa0a9b4d5eaf93af1b82848787604051808573ffffffffffffffffffffffffffffffffffffffff1673ffffffffffffffffffffffffffffffffffffffff1681526020018473ffffffffffffffffffffffffffffffffffffffff1673ffffffffffffffffffffffffffffffffffffffff16815260200183815260200182815260200194505050505060405180910390a15050505050565b60008082600260008673ffffffffffffffffffffffffffffffffffffffff1673ffffffffffffffffffffffffffffffffffffffff16815260200190815260200160002060010154023414151561067b576040517f08c379a00000000000000000000000000000000000000000000000000000000081526004018080602001828103825260328152602001807f6d6573736167652076616c7565206973206e6f7420657175616c20746f20746981526020017f636b6574732720746f74616c207072696365000000000000000000000000000081525060400191505060405180910390fd5b82600260008673ffffffffffffffffffffffffffffffffffffffff1673ffffffffffffffffffffffffffffffffffffffff1681526020019081526020016000206000015403600260008673ffffffffffffffffffffffffffffffffffffffff1673ffffffffffffffffffffffffffffffffffffffff16815260200190815260200160002060020180549050131515156107a2576040517f08c379a00000000000000000000000000000000000000000000000000000000081526004018080602001828103825260288152602001807f726166666c6520646f6573206e6f74206861766520656e6f756768207469636b81526020017f657473206c65667400000000000000000000000000000000000000000000000081525060400191505060405180910390fd5b600090505b8281101561086257600260008573ffffffffffffffffffffffffffffffffffffffff1673ffffffffffffffffffffffffffffffffffffffff1681526020019081526020016000206002013390806001815401808255809150509060018203906000526020600020016000909192909190916101000a81548173ffffffffffffffffffffffffffffffffffffffff021916908373ffffffffffffffffffffffffffffffffffffffff1602179055505080806001019150506107a7565b7f8c29290feaae69a0da21d5859796f1a3911d3a93538ddb057de1f76e10a38779843385604051808473ffffffffffffffffffffffffffffffffffffffff1673ffffffffffffffffffffffffffffffffffffffff1681526020018373ffffffffffffffffffffffffffffffffffffffff1673ffffffffffffffffffffffffffffffffffffffff168152602001828152602001935050505060405180910390a1600260008573ffffffffffffffffffffffffffffffffffffffff1673ffffffffffffffffffffffffffffffffffffffff16815260200190815260200160002060000154600260008673ffffffffffffffffffffffffffffffffffffffff1673ffffffffffffffffffffffffffffffffffffffff1681526020019081526020016000206002018054905014156109a057610999846109ac565b91506109a5565b600191505b5092915050565b6000806000806000600160009054906101000a900473ffffffffffffffffffffffffffffffffffffffff1673ffffffffffffffffffffffffffffffffffffffff163373ffffffffffffffffffffffffffffffffffffffff16141515610a79576040517f08c379a000000000000000000000000000000000000000000000000000000000815260040180806020018281038252601e8152602001807f6d6573736167652073656e64657220697320756e617574686f72697a6564000081525060200191505060405180910390fd5b6000600260008873ffffffffffffffffffffffffffffffffffffffff1673ffffffffffffffffffffffffffffffffffffffff168152602001908152602001600020600201805490501115610e6857439350600260008773ffffffffffffffffffffffffffffffffffffffff1673ffffffffffffffffffffffffffffffffffffffff168152602001908152602001600020600201805490508460405180828152602001915050604051809103902060019004811515610b3357fe5b069250600260008773ffffffffffffffffffffffffffffffffffffffff1673ffffffffffffffffffffffffffffffffffffffff16815260200190815260200160002060020183815481101515610b8557fe5b9060005260206000200160009054906101000a900473ffffffffffffffffffffffffffffffffffffffff169150600260008773ffffffffffffffffffffffffffffffffffffffff1673ffffffffffffffffffffffffffffffffffffffff16815260200190815260200160002060010154600260008873ffffffffffffffffffffffffffffffffffffffff1673ffffffffffffffffffffffffffffffffffffffff16815260200190815260200160002060020180549050029050600260008773ffffffffffffffffffffffffffffffffffffffff1673ffffffffffffffffffffffffffffffffffffffff16815260200190815260200160002060030160009054906101000a900473ffffffffffffffffffffffffffffffffffffffff1673ffffffffffffffffffffffffffffffffffffffff166108fc829081150290604051600060405180830381858888f19350505050158015610ce6573d6000803e3d6000fd5b50610d3382600260008973ffffffffffffffffffffffffffffffffffffffff1673ffffffffffffffffffffffffffffffffffffffff168152602001908152602001600020600401546111f4565b600260008773ffffffffffffffffffffffffffffffffffffffff1673ffffffffffffffffffffffffffffffffffffffff1681526020019081526020016000206000808201600090556001820160009055600282016000610d939190611360565b6003820160006101000a81549073ffffffffffffffffffffffffffffffffffffffff0219169055600482016000905550507fd318bbdf1f6796519180cadf9a6e5d34ee61316689fa125196ad39e95805b71c868383604051808473ffffffffffffffffffffffffffffffffffffffff1673ffffffffffffffffffffffffffffffffffffffff1681526020018373ffffffffffffffffffffffffffffffffffffffff1673ffffffffffffffffffffffffffffffffffffffff168152602001828152602001935050505060405180910390a16110a1565b610f16600260008873ffffffffffffffffffffffffffffffffffffffff1673ffffffffffffffffffffffffffffffffffffffff16815260200190815260200160002060030160009054906101000a900473ffffffffffffffffffffffffffffffffffffffff16600260008973ffffffffffffffffffffffffffffffffffffffff1673ffffffffffffffffffffffffffffffffffffffff168152602001908152602001600020600401546111f4565b600260008773ffffffffffffffffffffffffffffffffffffffff1673ffffffffffffffffffffffffffffffffffffffff1681526020019081526020016000206000808201600090556001820160009055600282016000610f769190611360565b6003820160006101000a81549073ffffffffffffffffffffffffffffffffffffffff0219169055600482016000905550507fabef7c352cec4845a09e9105b25bc4ba34d72321d11c24de0dac307ef1c4d44b86600260008973ffffffffffffffffffffffffffffffffffffffff1673ffffffffffffffffffffffffffffffffffffffff16815260200190815260200160002060030160009054906101000a900473ffffffffffffffffffffffffffffffffffffffff16604051808373ffffffffffffffffffffffffffffffffffffffff1673ffffffffffffffffffffffffffffffffffffffff1681526020018273ffffffffffffffffffffffffffffffffffffffff1673ffffffffffffffffffffffffffffffffffffffff1681526020019250505060405180910390a15b6001945050505050919050565b600160009054906101000a900473ffffffffffffffffffffffffffffffffffffffff1681565b60026020528060005260406000206000915090508060000154908060010154908060030160009054906101000a900473ffffffffffffffffffffffffffffffffffffffff16908060040154905084565b6060600260008373ffffffffffffffffffffffffffffffffffffffff1673ffffffffffffffffffffffffffffffffffffffff1681526020019081526020016000206002018054806020026020016040519081016040528092919081815260200182805480156111e857602002820191906000526020600020905b8160009054906101000a900473ffffffffffffffffffffffffffffffffffffffff1673ffffffffffffffffffffffffffffffffffffffff168152602001906001019080831161119e575b50505050509050919050565b6000809054906101000a900473ffffffffffffffffffffffffffffffffffffffff1673ffffffffffffffffffffffffffffffffffffffff1660405180807f736166655472616e7366657246726f6d28616464726573732c2061646472657381526020017f732c2075696e7432353629000000000000000000000000000000000000000000815250602b01905060405180910390207c010000000000000000000000000000000000000000000000000000000090043084846040518463ffffffff167c0100000000000000000000000000000000000000000000000000000000028152600401808473ffffffffffffffffffffffffffffffffffffffff1673ffffffffffffffffffffffffffffffffffffffff1681526020018373ffffffffffffffffffffffffffffffffffffffff1673ffffffffffffffffffffffffffffffffffffffff16815260200182815260200193505050506000604051808303816000875af192505050505050565b508054600082559060005260206000209081019061137e9190611381565b50565b6113a391905b8082111561139f576000816000905550600101611387565b5090565b905600a165627a7a723058202363f23ab8940f5060941ca6a03d31366ed1a2ca759767485d04f5cbe163105b0029",
  "source": "// contracts/Raffle.sol\npragma solidity ^0.4.22;\n\n/*\n  Requirements:\n    The creator sets the number of tickets and ticket price\n    The creator must purchase the first ticket on creation\n    Participants can buy as many tickets as are available\n    The nftValue is awarded to a random participant once all tickets are sold\n*/\n\ncontract Raffle {\n  struct RaffleInfo {\n    uint maxTickets;\n    uint price;\n    address[] participants;\n    address owner;\n    uint256 tokenId;\n    }\n  \n  address internal nftContract = address(keccak256(\"cfxtest:ace5gcmv1x118ts2tta4k83asp7sxrz566w4defuhr\"));\n\n  address public manager;\n  mapping(address => RaffleInfo) public raffles;\n\n  event CreateEvent(address _nft, address _owner, uint _maxTickets, uint _price);\n  event JoinEvent(address _nft, address _participant, uint _qty);\n  event DrawEvent(address _nft, address _winner, uint _nftValue);\n  event AbortEvent(address _nft, address _owner);\n  event Paid(address _from, uint _value);\n\n  function Raffle() public payable {\n    manager = msg.sender;\n  }\n\n  function createRaffle(uint _maxTickets, uint _price, address _owner, address _nft, uint256 _tokenId) public payable {\n    raffles[_nft].maxTickets = _maxTickets;\n    raffles[_nft].price = _price;\n    raffles[_nft].owner = _owner;\n    raffles[_nft].tokenId = _tokenId;\n\n    emit CreateEvent(_nft, _owner, _maxTickets, _price);\n  }\n\n  // `fallback` function called when eth is sent to Payable contract\n  function () public payable {\n    emit Paid(msg.sender, msg.value);\n  }\n\n  // purchase tickets\n  function joinRaffle(address _nft, uint _qty) public payable returns(bool) {\n    require(msg.value == raffles[_nft].price * _qty, \"message value is not equal to tickets' total price\");\n    require(int(raffles[_nft].participants.length) <= int(raffles[_nft].maxTickets - _qty), \"raffle does not have enough tickets left\");\n\n    for (uint i = 0; i < _qty; i++) {\n      raffles[_nft].participants.push(msg.sender);\n    }\n\n    emit JoinEvent (_nft, msg.sender, _qty);\n    \n    if (raffles[_nft].participants.length == raffles[_nft].maxTickets) {\n      return draw(_nft);\n    }\n    return true;\n  }\n\n  // award nftValue when all tickets are sold\n  function draw(address _nft) public restricted returns (bool) {\n\n    if (raffles[_nft].participants.length > 0){\n      uint seed = block.number;\n      uint random = uint(keccak256(seed)) % raffles[_nft].participants.length;\n      address winner = raffles[_nft].participants[random];\n      uint nftValue = raffles[_nft].participants.length * raffles[_nft].price;\n      address(raffles[_nft].owner).transfer(nftValue);\n      // transfer nft to winner\n      // function safeTransferFrom(address _from, address _to, uint256 _tokenId, bytes data) external payable;\n      // nftContract.call(bytes4(sha3(\"safeTransferFrom(address, address, uint256)\")), (address(this), winner, raffles[_nft].tokenId));\n      transferNft(winner, raffles[_nft].tokenId);\n      delete raffles[_nft];\n      emit DrawEvent (_nft ,winner, nftValue);\n    }else{\n      // transfer nft to owner\n      transferNft(raffles[_nft].owner, raffles[_nft].tokenId);\n      delete raffles[_nft];\n      emit AbortEvent(_nft, raffles[_nft].owner);\n    }\n\n    return true;\n  }\n\n  function transferNft(address _to, uint256 _tokenId) internal{\n      // function safeTransferFrom(address _from, address _to, uint256 _tokenId, bytes data) external payable;\n      nftContract.call(bytes4(sha3(\"safeTransferFrom(address, address, uint256)\")), address(this), _to, _tokenId);\n\n  }\n\n  function getParticipants(address _nft) public view returns (address []) {\n    return raffles[_nft].participants;\n  }\n\n  modifier restricted() {\n        require(msg.sender == manager, \"message sender is unauthorized\");\n        _;\n  }\n}",
  "sourcePath": "/Users/yulizhi/Downloads/test/cfx/contracts/Raffle.sol",
  "compiler": {
    "name": "solc",
    "version": "0.4.22+commit.4cb486ee.Emscripten.clang"
  },
  "schemaVersion": "3.3.4",
  "updatedAt": "2021-08-18T22:47:49.593Z",
  "devdoc": {
    "methods": {}
  },
  "userdoc": {
    "methods": {}
  }
}