{
  "contractName": "InftyNft",
  "abi": [
    {
      "inputs": [],
      "stateMutability": "nonpayable",
      "type": "constructor"
    },
    {
      "anonymous": false,
      "inputs": [
        {
          "indexed": true,
          "internalType": "address",
          "name": "owner",
          "type": "address"
        },
        {
          "indexed": true,
          "internalType": "address",
          "name": "approved",
          "type": "address"
        },
        {
          "indexed": true,
          "internalType": "uint256",
          "name": "tokenId",
          "type": "uint256"
        }
      ],
      "name": "Approval",
      "type": "event"
    },
    {
      "anonymous": false,
      "inputs": [
        {
          "indexed": true,
          "internalType": "address",
          "name": "owner",
          "type": "address"
        },
        {
          "indexed": true,
          "internalType": "address",
          "name": "operator",
          "type": "address"
        },
        {
          "indexed": false,
          "internalType": "bool",
          "name": "approved",
          "type": "bool"
        }
      ],
      "name": "ApprovalForAll",
      "type": "event"
    },
    {
      "anonymous": false,
      "inputs": [
        {
          "indexed": true,
          "internalType": "address",
          "name": "from",
          "type": "address"
        },
        {
          "indexed": true,
          "internalType": "address",
          "name": "to",
          "type": "address"
        },
        {
          "indexed": true,
          "internalType": "uint256",
          "name": "tokenId",
          "type": "uint256"
        }
      ],
      "name": "Transfer",
      "type": "event"
    },
    {
      "inputs": [
        {
          "internalType": "address",
          "name": "to",
          "type": "address"
        },
        {
          "internalType": "uint256",
          "name": "tokenId",
          "type": "uint256"
        }
      ],
      "name": "approve",
      "outputs": [],
      "stateMutability": "nonpayable",
      "type": "function"
    },
    {
      "inputs": [
        {
          "internalType": "address",
          "name": "owner",
          "type": "address"
        }
      ],
      "name": "balanceOf",
      "outputs": [
        {
          "internalType": "uint256",
          "name": "",
          "type": "uint256"
        }
      ],
      "stateMutability": "view",
      "type": "function"
    },
    {
      "inputs": [
        {
          "internalType": "uint256",
          "name": "tokenId",
          "type": "uint256"
        }
      ],
      "name": "getApproved",
      "outputs": [
        {
          "internalType": "address",
          "name": "",
          "type": "address"
        }
      ],
      "stateMutability": "view",
      "type": "function"
    },
    {
      "inputs": [
        {
          "internalType": "address",
          "name": "owner",
          "type": "address"
        },
        {
          "internalType": "address",
          "name": "operator",
          "type": "address"
        }
      ],
      "name": "isApprovedForAll",
      "outputs": [
        {
          "internalType": "bool",
          "name": "",
          "type": "bool"
        }
      ],
      "stateMutability": "view",
      "type": "function"
    },
    {
      "inputs": [],
      "name": "name",
      "outputs": [
        {
          "internalType": "string",
          "name": "",
          "type": "string"
        }
      ],
      "stateMutability": "view",
      "type": "function"
    },
    {
      "inputs": [
        {
          "internalType": "uint256",
          "name": "tokenId",
          "type": "uint256"
        }
      ],
      "name": "ownerOf",
      "outputs": [
        {
          "internalType": "address",
          "name": "",
          "type": "address"
        }
      ],
      "stateMutability": "view",
      "type": "function"
    },
    {
      "inputs": [
        {
          "internalType": "address",
          "name": "from",
          "type": "address"
        },
        {
          "internalType": "address",
          "name": "to",
          "type": "address"
        },
        {
          "internalType": "uint256",
          "name": "tokenId",
          "type": "uint256"
        }
      ],
      "name": "safeTransferFrom",
      "outputs": [],
      "stateMutability": "nonpayable",
      "type": "function"
    },
    {
      "inputs": [
        {
          "internalType": "address",
          "name": "from",
          "type": "address"
        },
        {
          "internalType": "address",
          "name": "to",
          "type": "address"
        },
        {
          "internalType": "uint256",
          "name": "tokenId",
          "type": "uint256"
        },
        {
          "internalType": "bytes",
          "name": "_data",
          "type": "bytes"
        }
      ],
      "name": "safeTransferFrom",
      "outputs": [],
      "stateMutability": "nonpayable",
      "type": "function"
    },
    {
      "inputs": [
        {
          "internalType": "address",
          "name": "operator",
          "type": "address"
        },
        {
          "internalType": "bool",
          "name": "approved",
          "type": "bool"
        }
      ],
      "name": "setApprovalForAll",
      "outputs": [],
      "stateMutability": "nonpayable",
      "type": "function"
    },
    {
      "inputs": [],
      "name": "symbol",
      "outputs": [
        {
          "internalType": "string",
          "name": "",
          "type": "string"
        }
      ],
      "stateMutability": "view",
      "type": "function"
    },
    {
      "inputs": [
        {
          "internalType": "uint256",
          "name": "index",
          "type": "uint256"
        }
      ],
      "name": "tokenByIndex",
      "outputs": [
        {
          "internalType": "uint256",
          "name": "",
          "type": "uint256"
        }
      ],
      "stateMutability": "view",
      "type": "function"
    },
    {
      "inputs": [
        {
          "internalType": "address",
          "name": "owner",
          "type": "address"
        },
        {
          "internalType": "uint256",
          "name": "index",
          "type": "uint256"
        }
      ],
      "name": "tokenOfOwnerByIndex",
      "outputs": [
        {
          "internalType": "uint256",
          "name": "",
          "type": "uint256"
        }
      ],
      "stateMutability": "view",
      "type": "function"
    },
    {
      "inputs": [],
      "name": "totalSupply",
      "outputs": [
        {
          "internalType": "uint256",
          "name": "",
          "type": "uint256"
        }
      ],
      "stateMutability": "view",
      "type": "function"
    },
    {
      "inputs": [
        {
          "internalType": "address",
          "name": "from",
          "type": "address"
        },
        {
          "internalType": "address",
          "name": "to",
          "type": "address"
        },
        {
          "internalType": "uint256",
          "name": "tokenId",
          "type": "uint256"
        }
      ],
      "name": "transferFrom",
      "outputs": [],
      "stateMutability": "nonpayable",
      "type": "function"
    },
    {
      "inputs": [
        {
          "internalType": "address",
          "name": "creator",
          "type": "address"
        },
        {
          "internalType": "string",
          "name": "URI",
          "type": "string"
        }
      ],
      "name": "mint",
      "outputs": [
        {
          "internalType": "uint256",
          "name": "",
          "type": "uint256"
        }
      ],
      "stateMutability": "nonpayable",
      "type": "function"
    },
    {
      "inputs": [
        {
          "internalType": "uint256",
          "name": "_tokenId",
          "type": "uint256"
        }
      ],
      "name": "tokenURI",
      "outputs": [
        {
          "internalType": "string",
          "name": "",
          "type": "string"
        }
      ],
      "stateMutability": "view",
      "type": "function"
    },
    {
      "inputs": [
        {
          "internalType": "bytes4",
          "name": "_interfaceId",
          "type": "bytes4"
        }
      ],
      "name": "supportsInterface",
      "outputs": [
        {
          "internalType": "bool",
          "name": "",
          "type": "bool"
        }
      ],
      "stateMutability": "view",
      "type": "function"
    }
  ],
  "bytecode": "0x60806040523480156200001157600080fd5b506040518060400160405280600881526020017f496e6674794e66740000000000000000000000000000000000000000000000008152506040518060400160405280600481526020017f694e465400000000000000000000000000000000000000000000000000000000815250816000908051906020019062000096929190620000b8565b508060019080519060200190620000af929190620000b8565b505050620001cd565b828054620000c69062000168565b90600052602060002090601f016020900481019282620000ea576000855562000136565b82601f106200010557805160ff191683800117855562000136565b8280016001018555821562000136579182015b828111156200013557825182559160200191906001019062000118565b5b50905062000145919062000149565b5090565b5b80821115620001645760008160009055506001016200014a565b5090565b600060028204905060018216806200018157607f821691505b602082108114156200019857620001976200019e565b5b50919050565b7f4e487b7100000000000000000000000000000000000000000000000000000000600052602260045260246000fd5b6132b380620001dd6000396000f3fe608060405234801561001057600080fd5b506004361061010b5760003560e01c80634f6ccce7116100a2578063a22cb46511610071578063a22cb465146102de578063b88d4fde146102fa578063c87b56dd14610316578063d0def52114610346578063e985e9c5146103765761010b565b80634f6ccce7146102305780636352211e1461026057806370a082311461029057806395d89b41146102c05761010b565b806318160ddd116100de57806318160ddd146101aa57806323b872dd146101c85780632f745c59146101e457806342842e0e146102145761010b565b806301ffc9a71461011057806306fdde0314610140578063081812fc1461015e578063095ea7b31461018e575b600080fd5b61012a6004803603810190610125919061233b565b6103a6565b6040516101379190612bcb565b60405180910390f35b6101486103b8565b6040516101559190612be6565b60405180910390f35b6101786004803603810190610173919061238d565b61044a565b6040516101859190612b64565b60405180910390f35b6101a860048036038101906101a391906122ff565b6104cf565b005b6101b26105e7565b6040516101bf9190612e48565b60405180910390f35b6101e260048036038101906101dd91906121a5565b6105f4565b005b6101fe60048036038101906101f991906122ff565b610654565b60405161020b9190612e48565b60405180910390f35b61022e600480360381019061022991906121a5565b6106f9565b005b61024a6004803603810190610245919061238d565b610719565b6040516102579190612e48565b60405180910390f35b61027a6004803603810190610275919061238d565b6107b0565b6040516102879190612b64565b60405180910390f35b6102aa60048036038101906102a59190612140565b610862565b6040516102b79190612e48565b60405180910390f35b6102c861091a565b6040516102d59190612be6565b60405180910390f35b6102f860048036038101906102f3919061226f565b6109ac565b005b610314600480360381019061030f91906121f4565b610b2d565b005b610330600480360381019061032b919061238d565b610b8f565b60405161033d9190612be6565b60405180910390f35b610360600480360381019061035b91906122ab565b610ba1565b60405161036d9190612e48565b60405180910390f35b610390600480360381019061038b9190612169565b610bd9565b60405161039d9190612bcb565b60405180910390f35b60006103b182610c6d565b9050919050565b6060600080546103c7906130a8565b80601f01602080910402602001604051908101604052809291908181526020018280546103f3906130a8565b80156104405780601f1061041557610100808354040283529160200191610440565b820191906000526020600020905b81548152906001019060200180831161042357829003601f168201915b5050505050905090565b600061045582610ce7565b610494576040517f08c379a000000000000000000000000000000000000000000000000000000000815260040161048b90612d88565b60405180910390fd5b6004600083815260200190815260200160002060009054906101000a900473ffffffffffffffffffffffffffffffffffffffff169050919050565b60006104da826107b0565b90508073ffffffffffffffffffffffffffffffffffffffff168373ffffffffffffffffffffffffffffffffffffffff16141561054b576040517f08c379a000000000000000000000000000000000000000000000000000000000815260040161054290612de8565b60405180910390fd5b8073ffffffffffffffffffffffffffffffffffffffff1661056a610d53565b73ffffffffffffffffffffffffffffffffffffffff161480610599575061059881610593610d53565b610bd9565b5b6105d8576040517f08c379a00000000000000000000000000000000000000000000000000000000081526004016105cf90612cc8565b60405180910390fd5b6105e28383610d5b565b505050565b6000600980549050905090565b6106056105ff610d53565b82610e14565b610644576040517f08c379a000000000000000000000000000000000000000000000000000000000815260040161063b90612e08565b60405180910390fd5b61064f838383610ef2565b505050565b600061065f83610862565b82106106a0576040517f08c379a000000000000000000000000000000000000000000000000000000000815260040161069790612c08565b60405180910390fd5b600760008473ffffffffffffffffffffffffffffffffffffffff1673ffffffffffffffffffffffffffffffffffffffff168152602001908152602001600020600083815260200190815260200160002054905092915050565b61071483838360405180602001604052806000815250610b2d565b505050565b60006107236105e7565b8210610764576040517f08c379a000000000000000000000000000000000000000000000000000000000815260040161075b90612e28565b60405180910390fd5b6009828154811061079e577f4e487b7100000000000000000000000000000000000000000000000000000000600052603260045260246000fd5b90600052602060002001549050919050565b6000806002600084815260200190815260200160002060009054906101000a900473ffffffffffffffffffffffffffffffffffffffff169050600073ffffffffffffffffffffffffffffffffffffffff168173ffffffffffffffffffffffffffffffffffffffff161415610859576040517f08c379a000000000000000000000000000000000000000000000000000000000815260040161085090612d08565b60405180910390fd5b80915050919050565b60008073ffffffffffffffffffffffffffffffffffffffff168273ffffffffffffffffffffffffffffffffffffffff1614156108d3576040517f08c379a00000000000000000000000000000000000000000000000000000000081526004016108ca90612ce8565b60405180910390fd5b600360008373ffffffffffffffffffffffffffffffffffffffff1673ffffffffffffffffffffffffffffffffffffffff168152602001908152602001600020549050919050565b606060018054610929906130a8565b80601f0160208091040260200160405190810160405280929190818152602001828054610955906130a8565b80156109a25780601f10610977576101008083540402835291602001916109a2565b820191906000526020600020905b81548152906001019060200180831161098557829003601f168201915b5050505050905090565b6109b4610d53565b73ffffffffffffffffffffffffffffffffffffffff168273ffffffffffffffffffffffffffffffffffffffff161415610a22576040517f08c379a0000000000000000000000000000000000000000000000000000000008152600401610a1990612c88565b60405180910390fd5b8060056000610a2f610d53565b73ffffffffffffffffffffffffffffffffffffffff1673ffffffffffffffffffffffffffffffffffffffff16815260200190815260200160002060008473ffffffffffffffffffffffffffffffffffffffff1673ffffffffffffffffffffffffffffffffffffffff16815260200190815260200160002060006101000a81548160ff0219169083151502179055508173ffffffffffffffffffffffffffffffffffffffff16610adc610d53565b73ffffffffffffffffffffffffffffffffffffffff167f17307eab39ab6107e8899845ad3d59bd9653f200f220920489ca2b5937696c3183604051610b219190612bcb565b60405180910390a35050565b610b3e610b38610d53565b83610e14565b610b7d576040517f08c379a0000000000000000000000000000000000000000000000000000000008152600401610b7490612e08565b60405180910390fd5b610b898484848461114e565b50505050565b6060610b9a826111aa565b9050919050565b6000610bad600b6112fc565b6000610bb9600b611312565b9050610bc58482611320565b610bcf81846114ee565b8091505092915050565b6000600560008473ffffffffffffffffffffffffffffffffffffffff1673ffffffffffffffffffffffffffffffffffffffff16815260200190815260200160002060008373ffffffffffffffffffffffffffffffffffffffff1673ffffffffffffffffffffffffffffffffffffffff16815260200190815260200160002060009054906101000a900460ff16905092915050565b60007f780e9d63000000000000000000000000000000000000000000000000000000007bffffffffffffffffffffffffffffffffffffffffffffffffffffffff1916827bffffffffffffffffffffffffffffffffffffffffffffffffffffffff19161480610ce05750610cdf82611562565b5b9050919050565b60008073ffffffffffffffffffffffffffffffffffffffff166002600084815260200190815260200160002060009054906101000a900473ffffffffffffffffffffffffffffffffffffffff1673ffffffffffffffffffffffffffffffffffffffff1614159050919050565b600033905090565b816004600083815260200190815260200160002060006101000a81548173ffffffffffffffffffffffffffffffffffffffff021916908373ffffffffffffffffffffffffffffffffffffffff160217905550808273ffffffffffffffffffffffffffffffffffffffff16610dce836107b0565b73ffffffffffffffffffffffffffffffffffffffff167f8c5be1e5ebec7d5bd14f71427d1e84f3dd0314c0f7b2291e5b200ac8c7c3b92560405160405180910390a45050565b6000610e1f82610ce7565b610e5e576040517f08c379a0000000000000000000000000000000000000000000000000000000008152600401610e5590612ca8565b60405180910390fd5b6000610e69836107b0565b90508073ffffffffffffffffffffffffffffffffffffffff168473ffffffffffffffffffffffffffffffffffffffff161480610ed857508373ffffffffffffffffffffffffffffffffffffffff16610ec08461044a565b73ffffffffffffffffffffffffffffffffffffffff16145b80610ee95750610ee88185610bd9565b5b91505092915050565b8273ffffffffffffffffffffffffffffffffffffffff16610f12826107b0565b73ffffffffffffffffffffffffffffffffffffffff1614610f68576040517f08c379a0000000000000000000000000000000000000000000000000000000008152600401610f5f90612da8565b60405180910390fd5b600073ffffffffffffffffffffffffffffffffffffffff168273ffffffffffffffffffffffffffffffffffffffff161415610fd8576040517f08c379a0000000000000000000000000000000000000000000000000000000008152600401610fcf90612c68565b60405180910390fd5b610fe3838383611644565b610fee600082610d5b565b6001600360008573ffffffffffffffffffffffffffffffffffffffff1673ffffffffffffffffffffffffffffffffffffffff168152602001908152602001600020600082825461103e9190612fbe565b925050819055506001600360008473ffffffffffffffffffffffffffffffffffffffff1673ffffffffffffffffffffffffffffffffffffffff16815260200190815260200160002060008282546110959190612f37565b92505081905550816002600083815260200190815260200160002060006101000a81548173ffffffffffffffffffffffffffffffffffffffff021916908373ffffffffffffffffffffffffffffffffffffffff160217905550808273ffffffffffffffffffffffffffffffffffffffff168473ffffffffffffffffffffffffffffffffffffffff167fddf252ad1be2c89b69c2b068fc378daa952ba7f163c4a11628f55a4df523b3ef60405160405180910390a4505050565b611159848484610ef2565b61116584848484611654565b6111a4576040517f08c379a000000000000000000000000000000000000000000000000000000000815260040161119b90612c28565b60405180910390fd5b50505050565b60606111b582610ce7565b6111f4576040517f08c379a00000000000000000000000000000000000000000000000000000000081526004016111eb90612d68565b60405180910390fd5b6000600660008481526020019081526020016000208054611214906130a8565b80601f0160208091040260200160405190810160405280929190818152602001828054611240906130a8565b801561128d5780601f106112625761010080835404028352916020019161128d565b820191906000526020600020905b81548152906001019060200180831161127057829003601f168201915b50505050509050600061129e6117eb565b90506000815114156112b45781925050506112f7565b6000825111156112e95780826040516020016112d1929190612b40565b604051602081830303815290604052925050506112f7565b6112f284611802565b925050505b919050565b6001816000016000828254019250508190555050565b600081600001549050919050565b600073ffffffffffffffffffffffffffffffffffffffff168273ffffffffffffffffffffffffffffffffffffffff161415611390576040517f08c379a000000000000000000000000000000000000000000000000000000000815260040161138790612d48565b60405180910390fd5b61139981610ce7565b156113d9576040517f08c379a00000000000000000000000000000000000000000000000000000000081526004016113d090612c48565b60405180910390fd5b6113e560008383611644565b6001600360008473ffffffffffffffffffffffffffffffffffffffff1673ffffffffffffffffffffffffffffffffffffffff16815260200190815260200160002060008282546114359190612f37565b92505081905550816002600083815260200190815260200160002060006101000a81548173ffffffffffffffffffffffffffffffffffffffff021916908373ffffffffffffffffffffffffffffffffffffffff160217905550808273ffffffffffffffffffffffffffffffffffffffff16600073ffffffffffffffffffffffffffffffffffffffff167fddf252ad1be2c89b69c2b068fc378daa952ba7f163c4a11628f55a4df523b3ef60405160405180910390a45050565b6114f782610ce7565b611536576040517f08c379a000000000000000000000000000000000000000000000000000000000815260040161152d90612d28565b60405180910390fd5b8060066000848152602001908152602001600020908051906020019061155d929190611f64565b505050565b60007f80ac58cd000000000000000000000000000000000000000000000000000000007bffffffffffffffffffffffffffffffffffffffffffffffffffffffff1916827bffffffffffffffffffffffffffffffffffffffffffffffffffffffff1916148061162d57507f5b5e139f000000000000000000000000000000000000000000000000000000007bffffffffffffffffffffffffffffffffffffffffffffffffffffffff1916827bffffffffffffffffffffffffffffffffffffffffffffffffffffffff1916145b8061163d575061163c826118a9565b5b9050919050565b61164f838383611913565b505050565b60006116758473ffffffffffffffffffffffffffffffffffffffff16611a27565b156117de578373ffffffffffffffffffffffffffffffffffffffff1663150b7a0261169e610d53565b8786866040518563ffffffff1660e01b81526004016116c09493929190612b7f565b602060405180830381600087803b1580156116da57600080fd5b505af192505050801561170b57506040513d601f19601f820116820180604052508101906117089190612364565b60015b61178e573d806000811461173b576040519150601f19603f3d011682016040523d82523d6000602084013e611740565b606091505b50600081511415611786576040517f08c379a000000000000000000000000000000000000000000000000000000000815260040161177d90612c28565b60405180910390fd5b805181602001fd5b63150b7a0260e01b7bffffffffffffffffffffffffffffffffffffffffffffffffffffffff1916817bffffffffffffffffffffffffffffffffffffffffffffffffffffffff1916149150506117e3565b600190505b949350505050565b606060405180602001604052806000815250905090565b606061180d82610ce7565b61184c576040517f08c379a000000000000000000000000000000000000000000000000000000000815260040161184390612dc8565b60405180910390fd5b60006118566117eb565b9050600081511161187657604051806020016040528060008152506118a1565b8061188084611a3a565b604051602001611891929190612b40565b6040516020818303038152906040525b915050919050565b60007f01ffc9a7000000000000000000000000000000000000000000000000000000007bffffffffffffffffffffffffffffffffffffffffffffffffffffffff1916827bffffffffffffffffffffffffffffffffffffffffffffffffffffffff1916149050919050565b61191e838383611be7565b600073ffffffffffffffffffffffffffffffffffffffff168373ffffffffffffffffffffffffffffffffffffffff1614156119615761195c81611bec565b6119a0565b8173ffffffffffffffffffffffffffffffffffffffff168373ffffffffffffffffffffffffffffffffffffffff161461199f5761199e8382611c35565b5b5b600073ffffffffffffffffffffffffffffffffffffffff168273ffffffffffffffffffffffffffffffffffffffff1614156119e3576119de81611da2565b611a22565b8273ffffffffffffffffffffffffffffffffffffffff168273ffffffffffffffffffffffffffffffffffffffff1614611a2157611a208282611ee5565b5b5b505050565b600080823b905060008111915050919050565b60606000821415611a82576040518060400160405280600181526020017f30000000000000000000000000000000000000000000000000000000000000008152509050611be2565b600082905060005b60008214611ab4578080611a9d906130da565b915050600a82611aad9190612f8d565b9150611a8a565b60008167ffffffffffffffff811115611af6577f4e487b7100000000000000000000000000000000000000000000000000000000600052604160045260246000fd5b6040519080825280601f01601f191660200182016040528015611b285781602001600182028036833780820191505090505b5090505b60008514611bdb57600182611b419190612fbe565b9150600a85611b509190613123565b6030611b5c9190612f37565b60f81b818381518110611b98577f4e487b7100000000000000000000000000000000000000000000000000000000600052603260045260246000fd5b60200101907effffffffffffffffffffffffffffffffffffffffffffffffffffffffffffff1916908160001a905350600a85611bd49190612f8d565b9450611b2c565b8093505050505b919050565b505050565b600980549050600a600083815260200190815260200160002081905550600981908060018154018082558091505060019003906000526020600020016000909190919091505550565b60006001611c4284610862565b611c4c9190612fbe565b9050600060086000848152602001908152602001600020549050818114611d31576000600760008673ffffffffffffffffffffffffffffffffffffffff1673ffffffffffffffffffffffffffffffffffffffff168152602001908152602001600020600084815260200190815260200160002054905080600760008773ffffffffffffffffffffffffffffffffffffffff1673ffffffffffffffffffffffffffffffffffffffff168152602001908152602001600020600084815260200190815260200160002081905550816008600083815260200190815260200160002081905550505b6008600084815260200190815260200160002060009055600760008573ffffffffffffffffffffffffffffffffffffffff1673ffffffffffffffffffffffffffffffffffffffff16815260200190815260200160002060008381526020019081526020016000206000905550505050565b60006001600980549050611db69190612fbe565b90506000600a6000848152602001908152602001600020549050600060098381548110611e0c577f4e487b7100000000000000000000000000000000000000000000000000000000600052603260045260246000fd5b906000526020600020015490508060098381548110611e54577f4e487b7100000000000000000000000000000000000000000000000000000000600052603260045260246000fd5b906000526020600020018190555081600a600083815260200190815260200160002081905550600a6000858152602001908152602001600020600090556009805480611ec9577f4e487b7100000000000000000000000000000000000000000000000000000000600052603160045260246000fd5b6001900381819060005260206000200160009055905550505050565b6000611ef083610862565b905081600760008573ffffffffffffffffffffffffffffffffffffffff1673ffffffffffffffffffffffffffffffffffffffff168152602001908152602001600020600083815260200190815260200160002081905550806008600084815260200190815260200160002081905550505050565b828054611f70906130a8565b90600052602060002090601f016020900481019282611f925760008555611fd9565b82601f10611fab57805160ff1916838001178555611fd9565b82800160010185558215611fd9579182015b82811115611fd8578251825591602001919060010190611fbd565b5b509050611fe69190611fea565b5090565b5b80821115612003576000816000905550600101611feb565b5090565b600061201a61201584612e94565b612e63565b90508281526020810184848401111561203257600080fd5b61203d848285613066565b509392505050565b600061205861205384612ec4565b612e63565b90508281526020810184848401111561207057600080fd5b61207b848285613066565b509392505050565b60008135905061209281613221565b92915050565b6000813590506120a781613238565b92915050565b6000813590506120bc8161324f565b92915050565b6000815190506120d18161324f565b92915050565b600082601f8301126120e857600080fd5b81356120f8848260208601612007565b91505092915050565b600082601f83011261211257600080fd5b8135612122848260208601612045565b91505092915050565b60008135905061213a81613266565b92915050565b60006020828403121561215257600080fd5b600061216084828501612083565b91505092915050565b6000806040838503121561217c57600080fd5b600061218a85828601612083565b925050602061219b85828601612083565b9150509250929050565b6000806000606084860312156121ba57600080fd5b60006121c886828701612083565b93505060206121d986828701612083565b92505060406121ea8682870161212b565b9150509250925092565b6000806000806080858703121561220a57600080fd5b600061221887828801612083565b945050602061222987828801612083565b935050604061223a8782880161212b565b925050606085013567ffffffffffffffff81111561225757600080fd5b612263878288016120d7565b91505092959194509250565b6000806040838503121561228257600080fd5b600061229085828601612083565b92505060206122a185828601612098565b9150509250929050565b600080604083850312156122be57600080fd5b60006122cc85828601612083565b925050602083013567ffffffffffffffff8111156122e957600080fd5b6122f585828601612101565b9150509250929050565b6000806040838503121561231257600080fd5b600061232085828601612083565b92505060206123318582860161212b565b9150509250929050565b60006020828403121561234d57600080fd5b600061235b848285016120ad565b91505092915050565b60006020828403121561237657600080fd5b6000612384848285016120c2565b91505092915050565b60006020828403121561239f57600080fd5b60006123ad8482850161212b565b91505092915050565b6123bf81612ff2565b82525050565b6123ce81613004565b82525050565b60006123df82612ef4565b6123e98185612f0a565b93506123f9818560208601613075565b61240281613210565b840191505092915050565b600061241882612eff565b6124228185612f1b565b9350612432818560208601613075565b61243b81613210565b840191505092915050565b600061245182612eff565b61245b8185612f2c565b935061246b818560208601613075565b80840191505092915050565b6000612484602b83612f1b565b91507f455243373231456e756d657261626c653a206f776e657220696e646578206f7560008301527f74206f6620626f756e64730000000000000000000000000000000000000000006020830152604082019050919050565b60006124ea603283612f1b565b91507f4552433732313a207472616e7366657220746f206e6f6e20455243373231526560008301527f63656976657220696d706c656d656e74657200000000000000000000000000006020830152604082019050919050565b6000612550601c83612f1b565b91507f4552433732313a20746f6b656e20616c7265616479206d696e746564000000006000830152602082019050919050565b6000612590602483612f1b565b91507f4552433732313a207472616e7366657220746f20746865207a65726f2061646460008301527f72657373000000000000000000000000000000000000000000000000000000006020830152604082019050919050565b60006125f6601983612f1b565b91507f4552433732313a20617070726f766520746f2063616c6c6572000000000000006000830152602082019050919050565b6000612636602c83612f1b565b91507f4552433732313a206f70657261746f7220717565727920666f72206e6f6e657860008301527f697374656e7420746f6b656e00000000000000000000000000000000000000006020830152604082019050919050565b600061269c603883612f1b565b91507f4552433732313a20617070726f76652063616c6c6572206973206e6f74206f7760008301527f6e6572206e6f7220617070726f76656420666f7220616c6c00000000000000006020830152604082019050919050565b6000612702602a83612f1b565b91507f4552433732313a2062616c616e636520717565727920666f7220746865207a6560008301527f726f2061646472657373000000000000000000000000000000000000000000006020830152604082019050919050565b6000612768602983612f1b565b91507f4552433732313a206f776e657220717565727920666f72206e6f6e657869737460008301527f656e7420746f6b656e00000000000000000000000000000000000000000000006020830152604082019050919050565b60006127ce602e83612f1b565b91507f45524337323155524953746f726167653a2055524920736574206f66206e6f6e60008301527f6578697374656e7420746f6b656e0000000000000000000000000000000000006020830152604082019050919050565b6000612834602083612f1b565b91507f4552433732313a206d696e7420746f20746865207a65726f20616464726573736000830152602082019050919050565b6000612874603183612f1b565b91507f45524337323155524953746f726167653a2055524920717565727920666f722060008301527f6e6f6e6578697374656e7420746f6b656e0000000000000000000000000000006020830152604082019050919050565b60006128da602c83612f1b565b91507f4552433732313a20617070726f76656420717565727920666f72206e6f6e657860008301527f697374656e7420746f6b656e00000000000000000000000000000000000000006020830152604082019050919050565b6000612940602983612f1b565b91507f4552433732313a207472616e73666572206f6620746f6b656e2074686174206960008301527f73206e6f74206f776e00000000000000000000000000000000000000000000006020830152604082019050919050565b60006129a6602f83612f1b565b91507f4552433732314d657461646174613a2055524920717565727920666f72206e6f60008301527f6e6578697374656e7420746f6b656e00000000000000000000000000000000006020830152604082019050919050565b6000612a0c602183612f1b565b91507f4552433732313a20617070726f76616c20746f2063757272656e74206f776e6560008301527f72000000000000000000000000000000000000000000000000000000000000006020830152604082019050919050565b6000612a72603183612f1b565b91507f4552433732313a207472616e736665722063616c6c6572206973206e6f74206f60008301527f776e6572206e6f7220617070726f7665640000000000000000000000000000006020830152604082019050919050565b6000612ad8602c83612f1b565b91507f455243373231456e756d657261626c653a20676c6f62616c20696e646578206f60008301527f7574206f6620626f756e647300000000000000000000000000000000000000006020830152604082019050919050565b612b3a8161305c565b82525050565b6000612b4c8285612446565b9150612b588284612446565b91508190509392505050565b6000602082019050612b7960008301846123b6565b92915050565b6000608082019050612b9460008301876123b6565b612ba160208301866123b6565b612bae6040830185612b31565b8181036060830152612bc081846123d4565b905095945050505050565b6000602082019050612be060008301846123c5565b92915050565b60006020820190508181036000830152612c00818461240d565b905092915050565b60006020820190508181036000830152612c2181612477565b9050919050565b60006020820190508181036000830152612c41816124dd565b9050919050565b60006020820190508181036000830152612c6181612543565b9050919050565b60006020820190508181036000830152612c8181612583565b9050919050565b60006020820190508181036000830152612ca1816125e9565b9050919050565b60006020820190508181036000830152612cc181612629565b9050919050565b60006020820190508181036000830152612ce18161268f565b9050919050565b60006020820190508181036000830152612d01816126f5565b9050919050565b60006020820190508181036000830152612d218161275b565b9050919050565b60006020820190508181036000830152612d41816127c1565b9050919050565b60006020820190508181036000830152612d6181612827565b9050919050565b60006020820190508181036000830152612d8181612867565b9050919050565b60006020820190508181036000830152612da1816128cd565b9050919050565b60006020820190508181036000830152612dc181612933565b9050919050565b60006020820190508181036000830152612de181612999565b9050919050565b60006020820190508181036000830152612e01816129ff565b9050919050565b60006020820190508181036000830152612e2181612a65565b9050919050565b60006020820190508181036000830152612e4181612acb565b9050919050565b6000602082019050612e5d6000830184612b31565b92915050565b6000604051905081810181811067ffffffffffffffff82111715612e8a57612e896131e1565b5b8060405250919050565b600067ffffffffffffffff821115612eaf57612eae6131e1565b5b601f19601f8301169050602081019050919050565b600067ffffffffffffffff821115612edf57612ede6131e1565b5b601f19601f8301169050602081019050919050565b600081519050919050565b600081519050919050565b600082825260208201905092915050565b600082825260208201905092915050565b600081905092915050565b6000612f428261305c565b9150612f4d8361305c565b9250827fffffffffffffffffffffffffffffffffffffffffffffffffffffffffffffffff03821115612f8257612f81613154565b5b828201905092915050565b6000612f988261305c565b9150612fa38361305c565b925082612fb357612fb2613183565b5b828204905092915050565b6000612fc98261305c565b9150612fd48361305c565b925082821015612fe757612fe6613154565b5b828203905092915050565b6000612ffd8261303c565b9050919050565b60008115159050919050565b60007fffffffff0000000000000000000000000000000000000000000000000000000082169050919050565b600073ffffffffffffffffffffffffffffffffffffffff82169050919050565b6000819050919050565b82818337600083830152505050565b60005b83811015613093578082015181840152602081019050613078565b838111156130a2576000848401525b50505050565b600060028204905060018216806130c057607f821691505b602082108114156130d4576130d36131b2565b5b50919050565b60006130e58261305c565b91507fffffffffffffffffffffffffffffffffffffffffffffffffffffffffffffffff82141561311857613117613154565b5b600182019050919050565b600061312e8261305c565b91506131398361305c565b92508261314957613148613183565b5b828206905092915050565b7f4e487b7100000000000000000000000000000000000000000000000000000000600052601160045260246000fd5b7f4e487b7100000000000000000000000000000000000000000000000000000000600052601260045260246000fd5b7f4e487b7100000000000000000000000000000000000000000000000000000000600052602260045260246000fd5b7f4e487b7100000000000000000000000000000000000000000000000000000000600052604160045260246000fd5b6000601f19601f8301169050919050565b61322a81612ff2565b811461323557600080fd5b50565b61324181613004565b811461324c57600080fd5b50565b61325881613010565b811461326357600080fd5b50565b61326f8161305c565b811461327a57600080fd5b5056fea2646970667358221220674c55c2fc3c77059ec30eaaa2b9f8a6cfa7088ab14ef8d48c53327df6dc7b4264736f6c63430008000033",
  "immutableReferences": {},
  "source": "pragma solidity ^0.8.0;\n\nimport \"@openzeppelin/contracts/token/ERC721/ERC721.sol\";\nimport \"@openzeppelin/contracts/token/ERC721/extensions/ERC721URIStorage.sol\";\nimport \"@openzeppelin/contracts/token/ERC721/extensions/ERC721Enumerable.sol\";\nimport \"@openzeppelin/contracts/utils/Counters.sol\";\n\ncontract InftyNft is ERC721URIStorage, ERC721Enumerable {\n  using Counters for Counters.Counter;\n  Counters.Counter private _tokenIds;\n\n  constructor() ERC721(\"InftyNft\", \"iNFT\") {}\n\n  function mint(address creator, string memory URI)\n    public\n    returns (uint256)\n  {\n    _tokenIds.increment();\n\n    uint256 newItemId = _tokenIds.current();\n    _mint(creator, newItemId);\n    _setTokenURI(newItemId, URI);\n\n    return newItemId;\n  }\n\n  function _beforeTokenTransfer(address _from, address _to, uint256 _tokenId) internal override(ERC721, ERC721Enumerable)\n  {\n      super._beforeTokenTransfer(_from, _to, _tokenId);\n  }\n\n  function tokenURI(uint256 _tokenId) public view override(ERC721, ERC721URIStorage) returns (string memory)\n  {\n      return super.tokenURI(_tokenId);\n  }\n\n  function supportsInterface(bytes4 _interfaceId) public view override(ERC721, ERC721Enumerable) returns (bool)\n  {\n      return super.supportsInterface(_interfaceId);\n  }\n\n  function _burn(uint256 _tokenId) internal override(ERC721, ERC721URIStorage) \n  {\n      super._burn(_tokenId);\n  }\n}\n",
  "sourcePath": "/home/unx/Documents/side/anything-nft/conflux/contracts/InftyNft.sol",
  "compiler": {
    "name": "solc",
    "version": "0.8.0+commit.c7dfd78e.Emscripten.clang"
  },
  "schemaVersion": "3.3.4",
  "updatedAt": "2021-08-17T22:07:01.535Z",
  "devdoc": {
    "kind": "dev",
    "methods": {
      "approve(address,uint256)": {
        "details": "See {IERC721-approve}."
      },
      "balanceOf(address)": {
        "details": "See {IERC721-balanceOf}."
      },
      "getApproved(uint256)": {
        "details": "See {IERC721-getApproved}."
      },
      "isApprovedForAll(address,address)": {
        "details": "See {IERC721-isApprovedForAll}."
      },
      "name()": {
        "details": "See {IERC721Metadata-name}."
      },
      "ownerOf(uint256)": {
        "details": "See {IERC721-ownerOf}."
      },
      "safeTransferFrom(address,address,uint256)": {
        "details": "See {IERC721-safeTransferFrom}."
      },
      "safeTransferFrom(address,address,uint256,bytes)": {
        "details": "See {IERC721-safeTransferFrom}."
      },
      "setApprovalForAll(address,bool)": {
        "details": "See {IERC721-setApprovalForAll}."
      },
      "symbol()": {
        "details": "See {IERC721Metadata-symbol}."
      },
      "tokenByIndex(uint256)": {
        "details": "See {IERC721Enumerable-tokenByIndex}."
      },
      "tokenOfOwnerByIndex(address,uint256)": {
        "details": "See {IERC721Enumerable-tokenOfOwnerByIndex}."
      },
      "totalSupply()": {
        "details": "See {IERC721Enumerable-totalSupply}."
      },
      "transferFrom(address,address,uint256)": {
        "details": "See {IERC721-transferFrom}."
      }
    },
    "version": 1
  },
  "userdoc": {
    "kind": "user",
    "methods": {},
    "version": 1
  }
}